0010001株式会社伊藤保険                                               有限会社・グループ                                              64335707160875693078268720000071252F        000814709676620008127735315100081295534644contact@junhasegawa.co.jp                              A
0010002山下印刷株式会社                                               株式会社・グループ                                              6723550070288037900997150000004087202       000819521350550008145054285500081487077262contact@kanawatanabe.co.jp                             A
0010003鈴木通信有限会社                                               鈴木通信有限会社・ソリューションズ                                      26876755433458335082188740000064551F        000814864893170008130303887300081529522455contact@shoheiinoue.co.jp                              I
0010004合同会社田中印刷                                               合同会社・グループ                                              6703546704689753616196857000001044HQ        000819813297570008119185279000081301205356contact@yuiokamoto.co.jp                               I
0010005株式会社池田銀行                                               合同会社・グループ                                              89542432790319997094628990000017073F        000817025051330008197887097400081472246590contact@ryoheiokada.co.jp                              A
0010006清水水産株式会社                                               有限会社・グループ                                              85614924136361323892305740000052412F        000819256784760008172788916600081947408590contact@minoruwatanabe.co.jp                           A
0010007有限会社伊藤銀行                                               株式会社・グループ                                              3491599760536315858109427000005346B1        000819635750260008139710729200081470624972contact@hidekikato.co.jp                               A
0010008株式会社山崎印刷                                               山崎印刷・ソリューションズ                                          66596516616981749069650620000062112F        000814583132040008155906018700081908069791contact@minoruito.co.jp                                I
0010009有限会社佐藤建設                                               有限会社佐藤建設・ソリューションズ                                      7266082638441895544094140000001119B1        000815653226260008168950815600081667955778contact@mikishimizu.co.jp                              A
0010010高橋水産合同会社                                               高橋水産合同会社・ソリューションズ                                      2319421635504598375619161000008554202       000813107879760008135311662800081335143643contact@rikakato.co.jp                                 B
0010011有限会社渡辺電気                                               有限会社渡辺電気・ソリューションズ                                      1992922065469825249029122000005687202       000813247572330008191790221000081398473379contact@tarosasaki.co.jp                               B
0010012山下運輸株式会社                                               株式会社・グループ                                              2390234990402556361506264000005914HQ        000816749548620008182966199700081849552411contact@reisuzuki.co.jp                                A
0010013前田鉱業合同会社                                               有限会社・グループ                                              37023029039252538945380580000054861F        000816152788740008129206384100081220573143contact@rikasaito.co.jp                                A
0010014合同会社小林銀行                                               合同会社小林銀行・ソリューションズ                                      13817761801591914469505440000099733F        000816933610730008173386405300081192997299contact@rikanakamura.co.jp                             A
0010015有限会社藤井印刷                                               合同会社・グループ                                              4791989987552480559266837000009445101       000812809377190008147266772200081601260371contact@atsushinakamura.co.jp                          A
0010016井上水産有限会社                                               井上水産有限会社・ソリューションズ                                      29822958162598436960322360000012332F        000819937891320008159952625300081248710524contact@nanamiyamada.co.jp                             B
0010017合同会社山口印刷                                               合同会社・グループ                                              8248575583042164212514655000004976101       000817539626480008194887231800081155111034contact@nanamisuzuki.co.jp                             A
0010018佐藤鉱業有限会社                                               佐藤鉱業有限会社・ソリューションズ                                      4013694500014273617768485000007106HQ        000811812389930008176503807200081683255433contact@naotoyamamoto.co.jp                            A
0010019合同会社加藤銀行                                               合同会社加藤銀行・ソリューションズ                                      71713080250598229107837410000053671F        000812597977850008160130478600081121192935contact@yasuhiroyamaguchi.co.jp                        A
0010020合同会社青木農林                                               合同会社青木農林・ソリューションズ                                      6723394738401762134271367000007338B1        000815692778590008174829246800081165089515contact@asukaokamoto.co.jp                             I
0010021合同会社伊藤情報                                               株式会社・グループ                                              4999997528377943683712691000004076101       000817460012360008123123185400081684469012contact@yosukeyamazaki.co.jp                           A
0010022合同会社小林建設                                               合同会社小林建設・ソリューションズ                                      3281669033245861901609224000004702B1        000814259143270008141936061300081420072792contact@kanakobayashi.co.jp                            A
0010023山下鉱業株式会社                                               山下鉱業・ソリューションズ                                          7959787935595856749728107000006688B1        000812373533360008199072351700081489951319contact@mikiyamazaki.co.jp                             A
0010024株式会社中島電気                                               中島電気・ソリューションズ                                          2252469237977924080083822000005180Main      000817465573900008153829550900081766142063contact@yumikoyamamoto.co.jp                           A
0010025山口ガス株式会社                                               山口ガス・ソリューションズ                                          5464253932763788689660667000002488Main      000816608562610008157805974200081210961814contact@ryosukesato.co.jp                              A
0010026株式会社小林鉱業                                               小林鉱業・ソリューションズ                                          8866876932512879135509455000004716Main      000818908098140008142677427400081635326437contact@akemisuzuki.co.jp                              A
0010027有限会社池田鉱業                                               有限会社・グループ                                              4393724034105947358225913000006395HQ        000812650400820008136648540600081159105132contact@kyosukematsumoto.co.jp                         B
0010028清水通信有限会社                                               清水通信有限会社・ソリューションズ                                      5255987967794844220484377000002202202       000818684303840008178927918000081942339398contact@yumikoyamashita.co.jp                          A
0010029合同会社西村電気                                               有限会社・グループ                                              1717059926831793464013630000008193HQ        000819336729150008150999501800081181698370contact@harukakobayashi.co.jp                          A
0010030鈴木建設合同会社                                               合同会社・グループ                                              58315774951408824960776330000088442F        000811474331170008151398821600081451556439contact@hiroshinakajima.co.jp                          A
0010031株式会社橋本食品                                               橋本食品・ソリューションズ                                          78017526011938310311996920000095673F        000811750959460008175137748700081649581713contact@miturusuzuki.co.jp                             I
0010032後藤運輸株式会社                                               株式会社・グループ                                              9875773590842257859279433000009973Main      000811954460440008115883278500081909759868contact@mikakoaoki.co.jp                               A
0010033山田建設有限会社                                               山田建設有限会社・ソリューションズ                                      69068752804779988081638230000033081F        000812317986840008126144241500081348803182contact@mikakosato.co.jp                               B
0010034株式会社鈴木保険                                               株式会社・グループ                                              8773749170561990007755631000002743101       000815832289360008119817005600081549935003contact@tsubasatakahashi.co.jp                         B
0010035鈴木銀行合同会社                                               合同会社・グループ                                              1098179322339321156432619000006196Main      000813883147070008115552710200081300862701contact@tsubasagoto.co.jp                              I
0010036山田農林合同会社                                               合同会社・グループ                                              46979948145191310474765570000029651F        000816443640890008182487669800081974379557contact@mikakomori.co.jp                               A
0010037渡辺電気有限会社                                               有限会社・グループ                                              1600755130993682447295696000005014101       000819483441300008112857792500081144103336contact@akemitanaka.co.jp                              A
0010038株式会社渡辺保険                                               渡辺保険・ソリューションズ                                          3872160292148946574862154000003181202       000814662195260008149218904700081531477069contact@mikakosuzuki.co.jp                             A
0010039株式会社岡田保険                                               岡田保険・ソリューションズ                                          5949307388810592552482562000003760B1        000818572680570008131568313900081874851769contact@shoheiabe.co.jp                                A
0010040株式会社中島水産                                               合同会社・グループ                                              5976296381044825556577308000003671HQ        000818477922710008189332955600081819405514contact@akemisato.co.jp                                A
0010041株式会社松田銀行                                               合同会社・グループ                                              48069171483694836304698460000057093F        000812893518660008179119929700081120476960contact@mikakoyamada.co.jp                             A
0010042株式会社長谷川銀行                                              長谷川銀行・ソリューションズ                                         48865631386830753272131540000075261F        000815665649090008174726175200081684208385contact@yuimurakami.co.jp                              B
0010043遠藤建設有限会社                                               遠藤建設有限会社・ソリューションズ                                      59609654160691125388484590000081072F        000817384147300008122828729300081407314658contact@satomitanaka.co.jp                             A
0010044株式会社小川運輸                                               小川運輸・ソリューションズ                                          2260155071047164177539714000008851Main      000818171571240008161496872300081632866365contact@mikiwatanabe.co.jp                             A
0010045山口ガス株式会社                                               有限会社・グループ                                              77912002318113336409852600000057551F        000819332127950008169843089800081614482376contact@yasuhiromatsumoto.co.jp                        B
0010046斉藤農林合同会社                                               有限会社・グループ                                              4056548601125183063103517000005734HQ        000818542217810008138036569800081541886784contact@mikifujita.co.jp                               I
0010047阿部水産株式会社                                               阿部水産・ソリューションズ                                          5878053555524660032696559000001469B1        000814779283290008128801666000081975401571contact@chiyonakajima.co.jp                            A
0010048山本印刷合同会社                                               合同会社・グループ                                              70983689274086862262530290000038821F        000817888025300008189881941800081332952273contact@shoheitanaka.co.jp                             A
0010049渡辺保険合同会社                                               合同会社・グループ                                              97870823391173219077656850000093562F        000811892234010008197338833300081237257654contact@satomimori.co.jp                               A
0010050中川銀行株式会社                                               中川銀行・ソリューションズ                                          42539605124304508888706790000063732F        000813567603700008168634864900081987238430contact@kyosukesato.co.jp                              B
0010051阿部水産合同会社                                               株式会社・グループ                                              7545653953374728212980088000009049101       000815786906830008196988737500081489982277contact@yuinakamura.co.jp                              I
0010052株式会社中村銀行                                               有限会社・グループ                                              8581893939090372760501376000009465101       000814278723720008150944726200081465475513contact@maayakimura.co.jp                              A
0010053岡田銀行株式会社                                               株式会社・グループ                                              73329227048726932221735780000019822F        000819368111000008128584069800081897105686contact@rikatakahashi.co.jp                            I
0010054有限会社小林保険                                               有限会社小林保険・ソリューションズ                                      3089467990374358253424760000004134101       000814562331710008144714226500081747353242contact@harukasasaki.co.jp                             A
0010055佐々木保険有限会社                                              佐々木保険有限会社・ソリューションズ                                     68117088299705205562102450000016001F        000817156642230008134715359400081617785288contact@manabusato.co.jp                               A
0010056株式会社佐藤保険                                               株式会社・グループ                                              3481592377299478052141526000003067101       000812477564290008117070259000081758319339contact@chiyoyamazaki.co.jp                            A
0010057鈴木鉱業株式会社                                               株式会社・グループ                                              62187291046892631503567830000073701F        000819986409500008155450823300081424502428contact@yoichisuzuki.co.jp                             A
0010058株式会社小林銀行                                               合同会社・グループ                                              82173555207447407986515930000081981F        000813091298570008124952445700081721571316contact@tsubasakato.co.jp                              B
0010059有限会社岡田通信                                               有限会社・グループ                                              3826625667565390755327583000000568101       000813243498550008159948603600081139762282contact@sayuriyoshida.co.jp                            B
0010060合同会社近藤食品                                               有限会社・グループ                                              4285404434011359847611665000004566Main      000812535545200008171427531200081280561983contact@satomiendo.co.jp                               A
0010061村上食品株式会社                                               有限会社・グループ                                              1359885591751133886301987000000161101       000817731119130008156481488900081299901418contact@shotaikeda.co.jp                               A
0010062有限会社後藤運輸                                               有限会社・グループ                                              1630368218797744041648633000008088Main      000819766411120008188470385900081364850113contact@taroabe.co.jp                                  A
0010063合同会社三浦印刷                                               合同会社三浦印刷・ソリューションズ                                      98395203140222905791135230000085193F        000813008102610008131011390600081463572292contact@harukanakajima.co.jp                           I
0010064松田食品株式会社                                               合同会社・グループ                                              8784090773176013311030997000002534B1        000819335525870008196409960900081379203170contact@kumikookamoto.co.jp                            B
0010065合同会社清水建設                                               合同会社清水建設・ソリューションズ                                      5953811530510861477943809000003935101       000818117772660008170110416400081393208113contact@osamunakajima.co.jp                            A
0010066合同会社石川印刷                                               株式会社・グループ                                              65371377464200847398860050000098102F        000816759411970008193620371200081308416698contact@tsubasayamashita.co.jp                         I
0010067佐藤銀行有限会社                                               佐藤銀行有限会社・ソリューションズ                                      5741710625287095684787798000003147101       000811233307940008164396211700081221328532contact@sayurisato.co.jp                               A
0010068有限会社佐々木建設                                              有限会社佐々木建設・ソリューションズ                                     73027009972828810770468430000055911F        000819111953060008157169092900081984862530contact@kazuyanishimura.co.jp                          A
0010069有限会社福田運輸                                               有限会社・グループ                                              71260827294009286843476120000010732F        000817008960770008141673583200081131606695contact@yukiokada.co.jp                                A
0010070太田情報株式会社                                               有限会社・グループ                                              4483755057166310051187077000002543101       000819057173320008114146520800081185613861contact@reiaoki.co.jp                                  A
0010071田中保険合同会社                                               株式会社・グループ                                              3946996129385476616197348000001737202       000815246479150008160673315900081317037645contact@mikiota.co.jp                                  A
0010072株式会社小林銀行                                               小林銀行・ソリューションズ                                          56289300480812952738107310000058902F        000811868083860008170257692600081518081620contact@naokimurakami.co.jp                            I
0010073合同会社中村建設                                               有限会社・グループ                                              4324543172459129013226545000004029B1        000813657747450008177537452800081149157822contact@kaorigoto.co.jp                                A
0010074株式会社吉田印刷                                               有限会社・グループ                                              8027323497416067885573616000003185Main      000813436323270008154305101700081117919461contact@hanakotakahashi.co.jp                          B
0010075有限会社佐藤ガス                                               有限会社佐藤ガス・ソリューションズ                                      64735281599275757220211560000051023F        000817342731440008119720341800081569666455contact@akemiyamada.co.jp                              A
0010076株式会社藤田水産                                               合同会社・グループ                                              3262954183216890002744212000009245202       000812890552620008149217301300081391257212contact@maitanaka.co.jp                                A
0010077三浦ガス有限会社                                               三浦ガス有限会社・ソリューションズ                                      10311343453636442518503030000014472F        000813896308730008157694201200081214297899contact@kanawatanabe.co.jp                             I
0010078高橋保険株式会社                                               合同会社・グループ                                              51827594871397770587793990000062341F        000814336586840008166930400200081242340953contact@momokomurakami.co.jp                           I
0010079有限会社中島食品                                               有限会社中島食品・ソリューションズ                                      61243114579262943853085850000038073F        000814050772820008156901526800081294013974contact@minorusasaki.co.jp                             A
0010080合同会社山崎農林                                               合同会社山崎農林・ソリューションズ                                      3093900853800612970125838000003590101       000819577158840008159595419400081344741030contact@hiroshimurakami.co.jp                          A
0010081高橋鉱業合同会社                                               高橋鉱業合同会社・ソリューションズ                                      2032693310672031553257225000006306HQ        000812671801300008158998546900081393012358contact@satomiwatanabe.co.jp                           I
0010082小川印刷有限会社                                               小川印刷有限会社・ソリューションズ                                      3502670463764310818135249000001733B1        000815490597880008125991125100081269849773contact@rikasasaki.co.jp                               I
0010083有限会社吉田印刷                                               有限会社吉田印刷・ソリューションズ                                      6940357239584565177268809000007074Main      000817304603120008117891733200081335344969contact@manabumatsuda.co.jp                            A
0010084合同会社山口印刷                                               合同会社山口印刷・ソリューションズ                                      4899421333060667299274027000002353202       000817113386380008147693641300081430283873contact@osamusuzuki.co.jp                              A
0010085株式会社岡田食品                                               合同会社・グループ                                              7972736200266272320150195000008152101       000818844081980008152782767500081469959340contact@akemifujiwara.co.jp                            A
0010086坂本情報有限会社                                               株式会社・グループ                                              3944220492831746080290581000003898202       000813262680960008151984061000081286473921contact@ryoheikobayashi.co.jp                          A
0010087有限会社鈴木銀行                                               有限会社鈴木銀行・ソリューションズ                                      9298484700946253249971726000003975101       000819507203560008161328645900081968160125contact@taichiyoshida.co.jp                            A
0010088山下水産合同会社                                               山下水産合同会社・ソリューションズ                                      6825949077013444330806465000002450202       000813757569950008142781220700081742634351contact@kaorimatsuda.co.jp                             B
0010089前田保険有限会社                                               前田保険有限会社・ソリューションズ                                      2929252685954293702132617000003241B1        000814040769360008116009137000081747527278contact@kanakato.co.jp                                 I
0010090松本建設有限会社                                               松本建設有限会社・ソリューションズ                                      2564224893156438993457593000005261B1        000818666492350008111076752600081231329033contact@harukaota.co.jp                                A
0010091有限会社井上農林                                               合同会社・グループ                                              6963102484105951018755981000003586HQ        000811338354350008184547871300081602189848contact@yumikookamoto.co.jp                            B
0010092合同会社鈴木建設                                               合同会社鈴木建設・ソリューションズ                                      1837802779094771661792673000005542B1        000818120382620008151155588900081681142232contact@mikimori.co.jp                                 A
0010093鈴木建設株式会社                                               鈴木建設・ソリューションズ                                          9262376504145340328611266000008226202       000819662303990008161253220100081190386369contact@nanamiyamamoto.co.jp                           A
0010094後藤水産合同会社                                               後藤水産合同会社・ソリューションズ                                      63051068328892539061180140000035572F        000814278945230008130956025500081820673294contact@yokonakagawa.co.jp                             A
0010095有限会社村上保険                                               合同会社・グループ                                              1429071899467240906602377000004433HQ        000817455249130008197079899900081738827324contact@rikasato.co.jp                                 B
0010096山本農林有限会社                                               株式会社・グループ                                              66871090876784503983249570000097633F        000817102594570008157580225000081864937677contact@asukasasaki.co.jp                              A
0010097加藤水産有限会社                                               加藤水産有限会社・ソリューションズ                                      6446933785746435472934925000007451101       000815521478040008119864688100081425338163contact@takumawatanabe.co.jp                           A
0010098遠藤電気株式会社                                               遠藤電気・ソリューションズ                                          21483753225989587401946920000020533F        000812679769650008167326379000081249790221contact@atsushihayashi.co.jp                           A
0010099合同会社田中水産                                               合同会社田中水産・ソリューションズ                                      41191587408211722969761980000035522F        000819718882580008119881946500081744074469contact@mikakoyoshida.co.jp                            A
0010100山本建設株式会社                                               山本建設・ソリューションズ                                          2256734310511227696853341000004380B1        000813888899810008180530429900081182048454contact@tarotakahashi.co.jp                            A
0010101有限会社小林通信                                               有限会社・グループ                                              84222745320921322317620800000092633F        000817605924960008121852082500081330172257contact@tsubasanishimura.co.jp                         A
0010102山下水産有限会社                                               合同会社・グループ                                              3644389694731088486769045000005191202       000813636919510008152482015600081509405477contact@nanamihasegawa.co.jp                           A
0010103合同会社佐藤通信                                               合同会社佐藤通信・ソリューションズ                                      5042886427798081837315670000005160101       000817619089980008129609059000081302051600contact@kazuyasato.co.jp                               B
0010104長谷川水産株式会社                                              長谷川水産・ソリューションズ                                         42118004791234793310857840000025792F        000814161309990008187215483400081292007555contact@maayasasaki.co.jp                              A
0010105鈴木水産有限会社                                               合同会社・グループ                                              8533761339125236475727904000009939B1        000818506191870008164922037700081983476289contact@nanamisato.co.jp                               A
0010106株式会社佐藤銀行                                               佐藤銀行・ソリューションズ                                          9193810707322719518254368000008933202       000815291350140008124627675400081202814936contact@akemitanaka.co.jp                              A
0010107山田建設合同会社                                               山田建設合同会社・ソリューションズ                                      23205075394642847130264560000008482F        000811319133470008177838680500081428341792contact@kyosukenakagawa.co.jp                          B
0010108長谷川ガス株式会社                                              長谷川ガス・ソリューションズ                                         38744984899396244667125450000026971F        000817591326570008129478800100081430058544contact@minoruyamada.co.jp                             A
0010109山崎保険株式会社                                               山崎保険・ソリューションズ                                          7294546383070381557406328000003744202       000818268957810008175968982900081306583421contact@chiyoinoue.co.jp                               A
0010110山本印刷合同会社                                               山本印刷合同会社・ソリューションズ                                      2940535695306923903222682000008749202       000817339520840008184145313400081788370486contact@osamunakamura.co.jp                            A
0010111小川通信合同会社                                               小川通信合同会社・ソリューションズ                                      7426702816173865657957373000006996Main      000817998403940008145426071600081199956810contact@yukinakamura.co.jp                             A
0010112鈴木水産有限会社                                               鈴木水産有限会社・ソリューションズ                                      7075786176827817962460331000005776B1        000813535781440008167020276800081239148944contact@mikakotanaka.co.jp                             I
0010113合同会社佐藤水産                                               合同会社佐藤水産・ソリューションズ                                      69484966918623795260352770000070921F        000818329427380008195861828900081355396701contact@naokokobayashi.co.jp                           B
0010114有限会社渡辺保険                                               有限会社・グループ                                              77515249008814200767395070000005722F        000816235585830008154313419200081231719769contact@maayahayashi.co.jp                             A
0010115合同会社佐々木銀行                                              合同会社・グループ                                              5550298037560189889541249000004143202       000816315229050008195817844500081586580084contact@osamuyamamoto.co.jp                            A
0010116山本農林有限会社                                               山本農林有限会社・ソリューションズ                                      59653651014543703451631790000080272F        000814235465600008162727337900081258957983contact@junito.co.jp                                   A
0010117合同会社森運輸                                                株式会社・グループ                                              4534967831981254543600570000005965B1        000819950730710008180003159200081219748749contact@mikihasegawa.co.jp                             A
0010118合同会社佐藤印刷                                               株式会社・グループ                                              4538208041132584879232173000000193Main      000817148401290008181462621300081483935292contact@minoruyamamoto.co.jp                           B
0010119有限会社吉田運輸                                               有限会社・グループ                                              74743938243758536228631830000099942F        000818485231470008188172440500081262324577contact@chiyoyoshida.co.jp                             A
0010120合同会社清水建設                                               合同会社清水建設・ソリューションズ                                      77942472169292148129422520000066643F        000811610000340008123974220400081467491941contact@osamutakahashi.co.jp                           A
0010121株式会社佐藤印刷                                               佐藤印刷・ソリューションズ                                          7423156094355389186966285000000689B1        000817996521020008199798795800081471069560contact@tsubasasuzuki.co.jp                            A
0010122藤原建設合同会社                                               有限会社・グループ                                              99635389298249973590186050000042832F        000811015107400008117174649000081426252327contact@sayurifukuda.co.jp                             A
0010123山口ガス有限会社                                               合同会社・グループ                                              60714190855403531735975980000094543F        000816079280830008178623300200081393344402contact@yosukekobayashi.co.jp                          I
0010124山下印刷有限会社                                               山下印刷有限会社・ソリューションズ                                      7409236922965538340397103000003874202       000811058563540008131968924500081638870605contact@hanakoshimizu.co.jp                            I
0010125中村運輸有限会社                                               合同会社・グループ                                              64525648609465538614082630000068603F        000811063265490008194410555900081897989116contact@kyosukeokada.co.jp                             I
0010126合同会社木村農林                                               合同会社木村農林・ソリューションズ                                      8651650250267699823803526000009668101       000812581615340008113307345200081265286629contact@taichiyamamoto.co.jp                           A
0010127合同会社加藤通信                                               株式会社・グループ                                              6241748128172588935113672000004999HQ        000818994043420008115035966100081365393592contact@satomiabe.co.jp                                A
0010128有限会社山崎建設                                               合同会社・グループ                                              33939192201223434235721690000043013F        000814394056250008128719212600081979859844contact@yutawatanabe.co.jp                             A
0010129有限会社渡辺水産                                               有限会社渡辺水産・ソリューションズ                                      40950382787758341514551650000071001F        000818893600090008185796715600081249751230contact@hanakoendo.co.jp                               I
0010130伊藤印刷合同会社                                               有限会社・グループ                                              11804904534051924101443190000047293F        000813447623930008150747137400081870408549contact@sotaroito.co.jp                                A
0010131有限会社阿部鉱業                                               合同会社・グループ                                              31343300450696280689977950000037143F        000811794328890008139718111200081858030099contact@naokinakajima.co.jp                            A
0010132福田情報合同会社                                               福田情報合同会社・ソリューションズ                                      3224682202512764366001819000003887B1        000819146741560008138267594700081222237484contact@yokowatanabe.co.jp                             B
0010133松本食品有限会社                                               株式会社・グループ                                              8633307315180110368667025000001876Main      000817034005780008146873506800081430226688contact@kaorisato.co.jp                                B
0010134松本ガス有限会社                                               合同会社・グループ                                              5891328628268798732270788000004052B1        000815625570970008185069702200081876902315contact@taroyoshida.co.jp                              B
0010135佐藤銀行株式会社                                               佐藤銀行・ソリューションズ                                          3798883236118771811291629000000223HQ        000817538636490008135546193900081429141210contact@hanakonakajima.co.jp                           A
0010136有限会社佐藤運輸                                               有限会社・グループ                                              8463878323098169342613750000005362B1        000814671914830008195997214100081130939601contact@yasuhirofujita.co.jp                           I
0010137株式会社高橋ガス                                               高橋ガス・ソリューションズ                                          99841987740296200270871770000065441F        000819077013850008152869798300081624557902contact@kaorimaeda.co.jp                               I
0010138株式会社吉田情報                                               有限会社・グループ                                              7731574087788237188037151000005021101       000817682539880008126748243800081863377564contact@akemimaeda.co.jp                               A
0010139近藤鉱業有限会社                                               株式会社・グループ                                              9467044644475813615900714000009607202       000814580157660008197794961800081253795342contact@maayatanaka.co.jp                              A
0010140株式会社清水食品                                               清水食品・ソリューションズ                                          37045349489901613849011040000007422F        000816032877100008134527830300081682600837contact@junmatsumoto.co.jp                             B
0010141有限会社中川銀行                                               有限会社中川銀行・ソリューションズ                                      2581844575735171624253694000009251B1        000814057043450008176657886900081726300892contact@manabusato.co.jp                               A
0010142藤井鉱業合同会社                                               藤井鉱業合同会社・ソリューションズ                                      61068940631083711704589730000051932F        000816666116850008145351636600081226225866contact@junnishimura.co.jp                             A
0010143株式会社山下通信                                               山下通信・ソリューションズ                                          6795883261277035845503649000001817B1        000817280379130008112242398900081318590204contact@kenichiyamaguchi.co.jp                         A
0010144小林建設有限会社                                               小林建設有限会社・ソリューションズ                                      5359473500722597426191967000002906HQ        000814952960020008159671320000081842268946contact@asukawatanabe.co.jp                            A
0010145斉藤水産有限会社                                               斉藤水産有限会社・ソリューションズ                                      2484682145310553271461059000001899202       000819802175780008113449850000081255393113contact@harukakobayashi.co.jp                          A
0010146井上通信合同会社                                               株式会社・グループ                                              5242619620566939883056784000004743B1        000816959608130008193728251600081954727157contact@naokifujita.co.jp                              B
0010147高橋銀行合同会社                                               有限会社・グループ                                              2278575654217130790711404000005937HQ        000813797243920008129001631600081878403654contact@hidekikondo.co.jp                              I
0010148有限会社福田農林                                               有限会社・グループ                                              59355158421798566698541070000097163F        000818997344380008135919790800081596347990contact@yukikobayashi.co.jp                            A
0010149株式会社佐藤銀行                                               合同会社・グループ                                              66482496483496713965363070000062803F        000811822641110008193012458300081232750006contact@mikiito.co.jp                                  B
0010150山本水産合同会社                                               山本水産合同会社・ソリューションズ                                      4693899141925724397517856000008491B1        000816624495830008156303638600081869611812contact@takumasasaki.co.jp                             A
0010151合同会社池田印刷                                               株式会社・グループ                                              74959374572563229139038160000077002F        000815491486940008158084456800081597002405contact@satomiyamaguchi.co.jp                          A
0010152合同会社小林電気                                               有限会社・グループ                                              1274331963227337031516380000000055HQ        000817992894480008173114092600081514177810contact@kanakondo.co.jp                                I
0010153高橋水産合同会社                                               有限会社・グループ                                              28454521561278866041072880000082142F        000817304594600008139671032400081175759461contact@yosukeito.co.jp                                A
0010154株式会社高橋情報                                               高橋情報・ソリューションズ                                          6906690657927847727731203000000141B1        000813962388790008177862364500081548223768contact@kazuyainoue.co.jp                              A
0010155有限会社清水食品                                               株式会社・グループ                                              6469775905460180137799805000008687101       000811464102070008157864261800081475076419contact@tomoyayamamoto.co.jp                           A
0010156有限会社松本電気                                               合同会社・グループ                                              5329427023720948170018193000007270101       000814838074740008178422171900081699809361contact@maayafujiwara.co.jp                            A
0010157太田運輸株式会社                                               太田運輸・ソリューションズ                                          3638462018549947787590704000006068HQ        000815902792910008152188246400081993661302contact@rikasato.co.jp                                 A
0010158株式会社高橋水産                                               株式会社・グループ                                              37579076617893904983858370000015203F        000815035467270008193410671800081466023076contact@yumikomatsumoto.co.jp                          I
0010159株式会社渡辺印刷                                               渡辺印刷・ソリューションズ                                          49211236370522159059811610000048461F        000816687019750008161389609600081936551750contact@hidekitakahashi.co.jp                          A
0010160合同会社太田保険                                               合同会社・グループ                                              61459325221797645948237940000088551F        000819912931820008138055892300081188937803contact@yumikomori.co.jp                               A
0010161鈴木食品合同会社                                               鈴木食品合同会社・ソリューションズ                                      3462643054153018968941638000001582Main      000811099756890008194112059400081215136696contact@taichiyamada.co.jp                             A
0010162有限会社藤原水産                                               有限会社藤原水産・ソリューションズ                                      56463470777822913329910630000049172F        000813350527390008149521186100081347497694contact@yokosasaki.co.jp                               A
0010163株式会社田中保険                                               合同会社・グループ                                              36935543758623709002228580000059762F        000818641710850008189459092300081352396155contact@harukatanaka.co.jp                             I
0010164株式会社山本鉱業                                               山本鉱業・ソリューションズ                                          8935546892078199358686432000007507HQ        000817709239950008154277486000081588431893contact@yukisasaki.co.jp                               I
0010165合同会社福田食品                                               株式会社・グループ                                              6012323870979440528670560000000925101       000812182086830008184005101100081795380726contact@akemikobayashi.co.jp                           B
0010166株式会社高橋建設                                               高橋建設・ソリューションズ                                          5893243606101887918240681000004426HQ        000812011799610008144699765400081373354693contact@hanakosato.co.jp                               B
0010167合同会社中島保険                                               合同会社中島保険・ソリューションズ                                      8970321349230030852532565000008074B1        000819059956910008189488269400081346142835contact@tsubasainoue.co.jp                             A
0010168有限会社中島鉱業                                               有限会社中島鉱業・ソリューションズ                                      32403977298456667004805160000047131F        000814030844280008136407472800081423724801contact@rikayamaguchi.co.jp                            A
0010169有限会社加藤通信                                               有限会社加藤通信・ソリューションズ                                      8043279720736850605818926000004076B1        000818548260900008116764604900081254878717contact@minorusato.co.jp                               A
0010170石川水産有限会社                                               株式会社・グループ                                              1758594395390891410045059000007758HQ        000816870924940008174694767700081663584704contact@asukagoto.co.jp                                A
0010171藤原建設有限会社                                               有限会社・グループ                                              5306103950921387982384214000005241HQ        000812342455100008157957119200081593687790contact@kazuyasaito.co.jp                              B
0010172有限会社木村情報                                               有限会社・グループ                                              2739354676145413949994443000001062HQ        000811727134420008179311090700081886916365contact@asukayamada.co.jp                              A
0010173合同会社斎藤情報                                               合同会社斎藤情報・ソリューションズ                                      4428286605625227191455240000006204101       000814700708620008131078575300081650023653contact@chiyoito.co.jp                                 I
0010174高橋保険有限会社                                               株式会社・グループ                                              9261911889751270157096791000001063HQ        000819224030060008163379100000081609928379contact@kaoritanaka.co.jp                              B
0010175村上ガス合同会社                                               村上ガス合同会社・ソリューションズ                                      6192910354571298242063078000006226101       000813455395500008152810589200081625697033contact@nanamisasaki.co.jp                             A
0010176株式会社前田運輸                                               株式会社・グループ                                              1826923922705611147511789000007311HQ        000814008693200008159392777800081883389758contact@kumikohasegawa.co.jp                           B
0010177合同会社渡辺食品                                               合同会社・グループ                                              6340532065355215532277973000002286HQ        000819747248530008125530801300081395394039contact@akemiyamaguchi.co.jp                           A
0010178有限会社山崎食品                                               有限会社山崎食品・ソリューションズ                                      53806424516630689712345310000024132F        000818077395590008129468420500081901351494contact@chiyowatanabe.co.jp                            B
0010179加藤電気合同会社                                               株式会社・グループ                                              68182553446121386394299440000088731F        000811866421800008126915794700081409954484contact@miturunakamura.co.jp                           A
0010180合同会社渡辺鉱業                                               有限会社・グループ                                              7123721678948680858131710000007580HQ        000819263693260008164781376400081170377687contact@momokoito.co.jp                                B
0010181株式会社鈴木印刷                                               鈴木印刷・ソリューションズ                                          92997110232753184773974930000071113F        000817691340330008130212921200081248458161contact@hidekikimura.co.jp                             B
0010182三浦通信株式会社                                               三浦通信・ソリューションズ                                          51164181266017727928295920000023783F        000816583512900008141190918300081261353640contact@atsushisato.co.jp                              I
0010183合同会社田中情報                                               合同会社田中情報・ソリューションズ                                      8214758161047863045091047000002553B1        000811450775960008159287318000081686880162contact@reitakahashi.co.jp                             A
0010184山口通信株式会社                                               株式会社・グループ                                              1561634804620363721207056000002493HQ        000819783237090008184509437900081587138715contact@maayamaeda.co.jp                               A
0010185佐藤通信株式会社                                               佐藤通信・ソリューションズ                                          1315197281272833980672103000000559101       000814938173900008120222631600081166114583contact@yoichitakahashi.co.jp                          A
0010186有限会社坂本銀行                                               有限会社坂本銀行・ソリューションズ                                      2764490685815883697041940000008481B1        000817137960760008144169895900081931571893contact@asukasato.co.jp                                A
0010187森印刷有限会社                                                有限会社・グループ                                              67681064304713973366289310000037271F        000815770457500008145454247100081189354592contact@ryoheiokada.co.jp                              A
0010188伊藤保険合同会社                                               有限会社・グループ                                              3043702130558324814984739000006914202       000813078574630008157204964300081512738502contact@ryoheihayashi.co.jp                            I
0010189加藤情報合同会社                                               加藤情報合同会社・ソリューションズ                                      42024617845439506059815190000087022F        000815570454570008144989852500081831635157contact@rikayamashita.co.jp                            A
0010190合同会社鈴木情報                                               株式会社・グループ                                              1154880143230220362395082000005520Main      000813545622930008110384809700081138339133contact@kanasasaki.co.jp                               A
0010191株式会社田中農林                                               田中農林・ソリューションズ                                          59240708782894676427746910000043371F        000819398834400008184132686700081692848404contact@yokowatanabe.co.jp                             A
0010192有限会社伊藤情報                                               株式会社・グループ                                              2728481217508533436129550000003674B1        000814085857780008113955162200081708010691contact@kanaikeda.co.jp                                I
0010193有限会社渡辺銀行                                               有限会社渡辺銀行・ソリューションズ                                      85337600782141109612260360000065672F        000817041092900008161058375300081305367530contact@sotaroyamamoto.co.jp                           B
0010194伊藤鉱業株式会社                                               伊藤鉱業・ソリューションズ                                          35647377585799811089353690000007571F        000814006923410008174265719700081498491831contact@akiratanaka.co.jp                              A
0010195合同会社佐藤建設                                               合同会社佐藤建設・ソリューションズ                                      3744211289091732940738320000001603202       000818425740740008126515453400081423919943contact@satomisuzuki.co.jp                             A
0010196有限会社山田鉱業                                               合同会社・グループ                                              52731905328114932856350890000000901F        000817292178150008163228664300081147344153contact@harukayamamoto.co.jp                           I
0010197長谷川ガス合同会社                                              長谷川ガス合同会社・ソリューションズ                                     6052398094762149263794153000008434202       000818904283660008157193347200081788534143contact@osamumatsumoto.co.jp                           I
0010198鈴木銀行合同会社                                               鈴木銀行合同会社・ソリューションズ                                      94123859233206316885360240000055583F        000811064039070008142756148700081188864462contact@harukayamamoto.co.jp                           I
0010199株式会社小林ガス                                               小林ガス・ソリューションズ                                          7229453482500263121027523000006177101       000819070379960008183338886700081460026706contact@naotokato.co.jp                                A
0010200田中食品株式会社                                               有限会社・グループ                                              28413898635834640840826330000012402F        000819475006280008168352802500081641882495contact@yumikofujii.co.jp                              A
0010201藤井建設合同会社                                               有限会社・グループ                                              4871509649411576875874838000005432101       000811719611000008142654337700081449574724contact@mainakamura.co.jp                              A
0010202山本運輸合同会社                                               山本運輸合同会社・ソリューションズ                                      77205011557136400794705810000023143F        000816360334600008131497432500081344157475contact@hiroshitakahashi.co.jp                         A
0010203山口電気合同会社                                               山口電気合同会社・ソリューションズ                                      2692718727894020958515551000008154Main      000818815084350008181868793300081202404701contact@kyosukesato.co.jp                              A
0010204有限会社中島電気                                               有限会社・グループ                                              3375462694712911191029162000007685HQ        000816050820400008136239237900081361141492contact@akemishimizu.co.jp                             B
0010205斉藤農林株式会社                                               斉藤農林・ソリューションズ                                          4392994675306450450042532000009163HQ        000819133450890008163758031400081515804763contact@maihashimoto.co.jp                             I
0010206有限会社吉田農林                                               有限会社吉田農林・ソリューションズ                                      5855391197372959566202119000005955101       000813446665800008180859502700081564364615contact@tsubasamurakami.co.jp                          A
0010207阿部水産合同会社                                               阿部水産合同会社・ソリューションズ                                      69149509140283279603072910000036993F        000819268768090008195529223700081717682017contact@kenichitanaka.co.jp                            A
0010208佐藤農林有限会社                                               株式会社・グループ                                              87238986300645914834967540000059761F        000816250815240008150096227700081103832861contact@kaorisuzuki.co.jp                              I
0010209株式会社小川印刷                                               小川印刷・ソリューションズ                                          51467941288034628065811580000044373F        000819388638240008196584656200081861923205contact@atsushisato.co.jp                              I
0010210岡田ガス株式会社                                               岡田ガス・ソリューションズ                                          62103924466863272329597580000071143F        000811174724650008128587989800081310087711contact@mikitakahashi.co.jp                            A
0010211合同会社小林運輸                                               合同会社小林運輸・ソリューションズ                                      46826135893438460528341880000081592F        000814474465000008162405637600081580638385contact@minorukobayashi.co.jp                          I
0010212有限会社坂本建設                                               有限会社坂本建設・ソリューションズ                                      7957182768190632427997232000005692Main      000818746292550008147947773600081762673048contact@nanamisato.co.jp                               B
0010213森鉱業株式会社                                                森鉱業・ソリューションズ                                           1296651568911151768963931000001252B1        000811558014590008179789506800081379417278contact@yutasuzuki.co.jp                               A
0010214村上水産有限会社                                               有限会社・グループ                                              43007815584179765024147200000071451F        000811697316540008174433469800081236139959contact@kanasuzuki.co.jp                               I
0010215株式会社遠藤通信                                               株式会社・グループ                                              22271173283583640239027400000045872F        000812644423870008191997545900081990800233contact@yutamiura.co.jp                                A
0010216石川電気株式会社                                               石川電気・ソリューションズ                                          65672718881572907213881430000076172F        000816045080020008154027207100081756360939contact@sayuriyamashita.co.jp                          A
0010217田中銀行株式会社                                               株式会社・グループ                                              67304386726073262968972390000058282F        000813377390740008196102935200081978984626contact@yoichinakajima.co.jp                           B
0010218合同会社石井農林                                               有限会社・グループ                                              7350343212647391668224613000005955HQ        000812585140870008195277017800081209994061contact@tarokato.co.jp                                 B
0010219高橋鉱業有限会社                                               合同会社・グループ                                              9995173453097017793925014000008785B1        000816948590630008138098990500081843587739contact@hiroshisato.co.jp                              B
0010220株式会社石井運輸                                               有限会社・グループ                                              2942052549993120833881257000007112B1        000814901235580008160710103200081521933433contact@yutaokada.co.jp                                A
0010221有限会社佐藤食品                                               合同会社・グループ                                              8233746446055394622709941000008073202       000818572574730008182923554900081561434516contact@tarookamoto.co.jp                              I
0010222株式会社藤田電気                                               藤田電気・ソリューションズ                                          6284937794783728354545377000005666202       000811266140730008156736277100081145534833contact@ryosukenakamura.co.jp                          A
0010223株式会社前田建設                                               株式会社・グループ                                              8015694358365447311598837000009647202       000819671460810008171571824100081156377936contact@shotawatanabe.co.jp                            I
0010224田中鉱業株式会社                                               田中鉱業・ソリューションズ                                          17862411940424865239407270000056913F        000816711919930008199268213300081230794502contact@yumikowatanabe.co.jp                           I
0010225有限会社石井運輸                                               有限会社石井運輸・ソリューションズ                                      7045146519757043588334593000000952Main      000819047669360008163608760900081780593348contact@mituruyamaguchi.co.jp                          A
0010226橋本保険合同会社                                               橋本保険合同会社・ソリューションズ                                      48251994291699308707266860000034552F        000819769414930008136285544500081711060741contact@kazuyatakahashi.co.jp                          A
0010227藤井食品株式会社                                               合同会社・グループ                                              80143533355202263881113470000016063F        000813731964780008173014563000081489952785contact@ryosukesaito.co.jp                             A
0010228合同会社西村農林                                               合同会社西村農林・ソリューションズ                                      1694002167055287213502311000005146Main      000814186605920008186455449300081758619106contact@akemikato.co.jp                                B
0010229有限会社佐藤電気                                               株式会社・グループ                                              81912120782472657001980530000041081F        000814369345120008139010665900081599566363contact@sotarosaito.co.jp                              A
0010230高橋水産合同会社                                               合同会社・グループ                                              47672143812575580040558250000046331F        000814784490860008138616465000081881510680contact@nanamiwatanabe.co.jp                           I
0010231合同会社藤田保険                                               株式会社・グループ                                              2271036481257715679274532000002189B1        000819589145340008151361464100081998009478contact@tomoyawatanabe.co.jp                           A
0010232合同会社伊藤情報                                               有限会社・グループ                                              79656781360905449467471200000078652F        000814855350070008141799355000081347646869contact@hanakotanaka.co.jp                             A
0010233有限会社太田農林                                               株式会社・グループ                                              94533593655421333243007890000037332F        000815587143720008141386168100081667723539contact@tomoyasasaki.co.jp                             A
0010234高橋水産株式会社                                               有限会社・グループ                                              2230790167566938101473925000004241Main      000819386706150008159030807900081834010767contact@yosukekondo.co.jp                              A
0010235有限会社橋本通信                                               合同会社・グループ                                              78081574985056443001386870000034182F        000818640498140008165204587200081351978073contact@sayuriwatanabe.co.jp                           A
0010236合同会社佐藤水産                                               合同会社佐藤水産・ソリューションズ                                      31226641252063380675644480000017282F        000819364092690008171208728600081815101223contact@shoheisato.co.jp                               I
0010237井上通信有限会社                                               有限会社・グループ                                              1632102592493552979058470000001168B1        000817065593110008132740688600081818753855contact@kaorisato.co.jp                                A
0010238合同会社山崎建設                                               有限会社・グループ                                              65102652230643720380150000000093931F        000819514897620008193453573000081106713498contact@yumikomatsuda.co.jp                            A
0010239高橋農林有限会社                                               合同会社・グループ                                              8001246252319236944425174000007999202       000811413886520008136876819400081650942788contact@momokoito.co.jp                                A
0010240有限会社加藤水産                                               株式会社・グループ                                              6618739402468978782243702000007445101       000816369061540008150774230800081985855817contact@takumaogawa.co.jp                              A
0010241斎藤印刷有限会社                                               斎藤印刷有限会社・ソリューションズ                                      9737696142562832816488846000005447202       000815884532340008169062382000081213082638contact@asukakato.co.jp                                A
0010242伊藤鉱業株式会社                                               伊藤鉱業・ソリューションズ                                          19517120552018167821632260000042122F        000816194150100008178426941500081871703435contact@yutaaoki.co.jp                                 B
0010243株式会社小川通信                                               小川通信・ソリューションズ                                          27474579923562207479269520000086002F        000813178021710008156217786900081636483422contact@minoruokamoto.co.jp                            A
0010244有限会社伊藤電気                                               合同会社・グループ                                              1921007162941557259499446000005360101       000814687167910008168996963100081812627637contact@takumayoshida.co.jp                            A
0010245合同会社中島食品                                               合同会社中島食品・ソリューションズ                                      50507119986875160135110210000000053F        000815931923020008199654562900081492887199contact@satomiyamazaki.co.jp                           I
0010246合同会社山本通信                                               合同会社山本通信・ソリューションズ                                      25395329085846495082444380000039993F        000813858825210008185752234400081635628399contact@miturutakahashi.co.jp                          A
0010247井上通信合同会社                                               合同会社・グループ                                              28656857909097996557240590000024681F        000811852710250008168306564700081319812151contact@chiyoota.co.jp                                 A
0010248小林通信合同会社                                               小林通信合同会社・ソリューションズ                                      2959813771792614943443517000001480B1        000815346742150008151183455700081890537376contact@kaorinishimura.co.jp                           A
0010249有限会社遠藤ガス                                               有限会社遠藤ガス・ソリューションズ                                      97295535577986569198851050000026962F        000814506677330008113491466700081255066649contact@maayaito.co.jp                                 I
0010250山田食品株式会社                                               株式会社・グループ                                              4991447112474328131245520000009754Main      000818010861510008170049746600081788375919contact@tomoyasato.co.jp                               B
0010251坂本銀行株式会社                                               坂本銀行・ソリューションズ                                          2202572547452763793552797000009736B1        000816857787860008176409249600081342181155contact@asukainoue.co.jp                               A
0010252清水ガス株式会社                                               清水ガス・ソリューションズ                                          3238584916775272288297443000009698101       000817084113600008140555789300081632904278contact@tsubasaito.co.jp                               I
0010253株式会社前田水産                                               合同会社・グループ                                              7524928618734971271063794000003864B1        000812668148010008141441969300081610990012contact@kaoriito.co.jp                                 I
0010254林情報株式会社                                                林情報・ソリューションズ                                           8267688092842358812193724000000933HQ        000813871084280008140098159600081579336284contact@yuiinoue.co.jp                                 A
0010255吉田印刷有限会社                                               合同会社・グループ                                              13388807600612165004238000000078632F        000815503279090008129999286600081587271888contact@sayurisato.co.jp                               I
0010256山本農林株式会社                                               山本農林・ソリューションズ                                          39355438807945491677827350000055093F        000811159546710008150134061100081581359705contact@manabushimizu.co.jp                            I
0010257株式会社三浦建設                                               三浦建設・ソリューションズ                                          59940798584187223130432010000054492F        000819420820970008119915291300081247449197contact@yumikomatsumoto.co.jp                          B
0010258合同会社佐藤ガス                                               合同会社佐藤ガス・ソリューションズ                                      6289895911734187968753375000009019HQ        000811457969980008194974275800081173702740contact@minoruyamamoto.co.jp                           A
0010259株式会社小林ガス                                               小林ガス・ソリューションズ                                          3468877985716122473783495000005004Main      000811882327390008132848917200081373569559contact@satominakagawa.co.jp                           A
0010260株式会社小林情報                                               有限会社・グループ                                              70540011057931588314118500000055972F        000814940762210008199597535700081598739222contact@akiranakamura.co.jp                            A
0010261有限会社高橋情報                                               株式会社・グループ                                              1977263578906360530806111000006004Main      000818494756520008168952886400081645659284contact@ryoheisuzuki.co.jp                             A
0010262岡田運輸合同会社                                               有限会社・グループ                                              7817573775373149957042186000004376Main      000813006492870008179989169100081139668173contact@kyosuketakahashi.co.jp                         A
0010263田中水産有限会社                                               合同会社・グループ                                              6362264298363259228237330000000966HQ        000815391351700008136291872400081423962466contact@akiramatsumoto.co.jp                           A
0010264藤井建設有限会社                                               合同会社・グループ                                              4006532694376391067992986000002715101       000816709790690008112463919600081840011737contact@yuisaito.co.jp                                 A
0010265加藤水産株式会社                                               株式会社・グループ                                              2861387235447980761397693000000177B1        000815682421300008125209471600081774293550contact@sayurisuzuki.co.jp                             I
0010266株式会社山田通信                                               山田通信・ソリューションズ                                          8002232179812028937311618000007283HQ        000817519521710008110548580300081431044950contact@ryoheihayashi.co.jp                            A
0010267伊藤食品有限会社                                               伊藤食品有限会社・ソリューションズ                                      76941719075062427264821720000003762F        000814366026470008121653318200081397318540contact@momokosuzuki.co.jp                             A
0010268石井水産有限会社                                               有限会社・グループ                                              9175767503264658812751798000001181202       000812463858460008110383752700081907816341contact@kazuyawatanabe.co.jp                           A
0010269有限会社青木通信                                               有限会社・グループ                                              78184078415123482062012720000068353F        000812182543660008150474066800081703769443contact@tarotakahashi.co.jp                            I
0010270山崎農林株式会社                                               山崎農林・ソリューションズ                                          33053757201687810950459300000015002F        000813099433040008161123502500081150741787contact@naotowatanabe.co.jp                            I
0010271有限会社西村通信                                               有限会社西村通信・ソリューションズ                                      7465377229379854818085207000009633101       000811828580520008162296690700081438662163contact@manabuyamamoto.co.jp                           I
0010272小林情報有限会社                                               合同会社・グループ                                              6426403195043454495364914000001151HQ        000816592199190008160185161300081204905096contact@osamuyamashita.co.jp                           I
0010273山田印刷合同会社                                               有限会社・グループ                                              1723564663417024394513858000006259HQ        000815780866730008156973317000081182097709contact@mikakotakahashi.co.jp                          A
0010274有限会社小林通信                                               有限会社小林通信・ソリューションズ                                      98681208578385710679265650000029643F        000817225805840008169125536400081875857900contact@yuifujita.co.jp                                A
0010275有限会社遠藤印刷                                               有限会社遠藤印刷・ソリューションズ                                      3705340740953360036751806000000611202       000811604563890008119625255800081862182626contact@kenichimiura.co.jp                             A
0010276山本水産有限会社                                               山本水産有限会社・ソリューションズ                                      63759106348272666255774730000022721F        000815926378010008163726650900081207168763contact@maikobayashi.co.jp                             A
0010277合同会社佐藤農林                                               株式会社・グループ                                              60817818032438398086146970000079393F        000811569844480008132793349800081399071439contact@hiroshisato.co.jp                              A
0010278高橋水産合同会社                                               株式会社・グループ                                              9398044685197297837411286000008041B1        000815462475980008140377427300081450708790contact@minorukobayashi.co.jp                          I
0010279合同会社藤井保険                                               合同会社藤井保険・ソリューションズ                                      9823374154905624570527802000004083Main      000811560716120008125667274500081272433791contact@kazuyagoto.co.jp                               A
0010280合同会社高橋建設                                               株式会社・グループ                                              4270161160884847804374590000008624202       000816701004040008112099707900081543837716contact@akeminakamura.co.jp                            A
0010281藤原食品有限会社                                               藤原食品有限会社・ソリューションズ                                      27020140182719236011849480000095943F        000815865091430008120410943300081471391318contact@rikasakamoto.co.jp                             A
0010282田中通信合同会社                                               田中通信合同会社・ソリューションズ                                      6355174346460478891856736000001837HQ        000818926920020008192042303400081404867263contact@satomikobayashi.co.jp                          A
0010283池田電気合同会社                                               池田電気合同会社・ソリューションズ                                      22317542043418472594775930000098191F        000815446860010008119370431000081877548396contact@hanakoshimizu.co.jp                            A
0010284合同会社伊藤印刷                                               有限会社・グループ                                              78491547476752191617232010000031583F        000818097294790008145283171500081999061644contact@naokomatsumoto.co.jp                           A
0010285株式会社山口情報                                               合同会社・グループ                                              3660236181196222551843746000009807202       000812819653400008116064557800081890782464contact@taroyamaguchi.co.jp                            A
0010286鈴木食品有限会社                                               鈴木食品有限会社・ソリューションズ                                      93839345810024648506056650000003761F        000817170012590008135806157100081411012401contact@kenichimatsuda.co.jp                           B
0010287山口ガス合同会社                                               山口ガス合同会社・ソリューションズ                                      6048038496544551059552084000002311101       000817165803890008177833477400081201395088contact@tarotanaka.co.jp                               A
0010288合同会社石川電気                                               合同会社・グループ                                              7961686709952054442894459000005258202       000812638133340008168055940800081398628418contact@yukinakajima.co.jp                             A
0010289山本保険有限会社                                               有限会社・グループ                                              4787695805061332752955754000006394HQ        000815448677950008112471996200081944648816contact@rikamaeda.co.jp                                A
0010290鈴木運輸合同会社                                               合同会社・グループ                                              50875737226131746218358130000027203F        000819675233660008194935872200081694373837contact@naokitanaka.co.jp                              A
0010291青木鉱業株式会社                                               合同会社・グループ                                              96274829504227337032376150000026121F        000813972648430008110002587100081455268851contact@momokoishikawa.co.jp                           B
0010292藤田運輸合同会社                                               有限会社・グループ                                              56526347407617946111628450000090442F        000812211758750008150576338800081392701361contact@minoruokada.co.jp                              A
0010293合同会社坂本運輸                                               合同会社坂本運輸・ソリューションズ                                      95998584195614718399215950000003223F        000818271038280008181769969300081363078850contact@yosuketakahashi.co.jp                          A
0010294太田運輸合同会社                                               株式会社・グループ                                              4599775729443752704134963000008061202       000819654552170008116115936100081957252409contact@atsushikimura.co.jp                            A
0010295合同会社山田食品                                               株式会社・グループ                                              3205577219815259446570258000002814B1        000814325947890008197388889900081713538581contact@yuishimizu.co.jp                               A
0010296山田食品株式会社                                               有限会社・グループ                                              3472611115376646560188896000001155202       000811748955620008156117443900081222184685contact@hiroshitanaka.co.jp                            B
0010297合同会社田中保険                                               株式会社・グループ                                              1504608957526882915781208000004988HQ        000813050379320008136503599300081435148832contact@yuisato.co.jp                                  I
0010298株式会社吉田建設                                               合同会社・グループ                                              21078128256501133528721290000020301F        000815782328020008187239685000081876014660contact@asukafujiwara.co.jp                            A
0010299清水ガス有限会社                                               清水ガス有限会社・ソリューションズ                                      5424404362132110541738027000004151Main      000814101727590008163329480900081311291773contact@mikakokimura.co.jp                             I
0010300有限会社後藤情報                                               有限会社後藤情報・ソリューションズ                                      1342145361794247339224831000008245202       000812750013490008172725321200081974102931contact@kyosukenakamura.co.jp                          A
0010301有限会社高橋農林                                               合同会社・グループ                                              64985806272590370022391000000026783F        000817513841600008118168924200081845793998contact@hanakomiura.co.jp                              I
0010302伊藤農林株式会社                                               伊藤農林・ソリューションズ                                          4120649090286243861018464000005145Main      000819316965730008150625678100081884635116contact@asukahasegawa.co.jp                            A
0010303有限会社森ガス                                                有限会社森ガス・ソリューションズ                                       46328342448388452410339220000074971F        000814798377460008115907719600081239319949contact@mituruabe.co.jp                                A
0010304佐藤情報合同会社                                               株式会社・グループ                                              73585236638329242729434480000067593F        000816927137960008167505307600081131683546contact@kanainoue.co.jp                                B
0010305伊藤通信有限会社                                               株式会社・グループ                                              73903897886387904587440730000065662F        000811741697100008143470504900081295914454contact@hidekikobayashi.co.jp                          I
0010306株式会社田中銀行                                               株式会社・グループ                                              9052639361691546337563613000004398101       000812326609570008143824040700081869220249contact@chiyosuzuki.co.jp                              A
0010307有限会社近藤運輸                                               有限会社近藤運輸・ソリューションズ                                      2406996440543560926013698000002773202       000813525236860008166623174000081155358026contact@harukasuzuki.co.jp                             B
0010308有限会社斎藤農林                                               有限会社斎藤農林・ソリューションズ                                      85713982145889351203624200000006713F        000815347221290008127425842400081664073214contact@manabutanaka.co.jp                             A
0010309木村情報合同会社                                               有限会社・グループ                                              8287079421764158339474070000009068B1        000813301947410008184144519700081963294805contact@kaorishimizu.co.jp                             A
0010310山下ガス有限会社                                               合同会社・グループ                                              9964203575738652443242980000003427B1        000816852329110008153754476800081386956773contact@mikakonishimura.co.jp                          A
0010311前田鉱業合同会社                                               合同会社・グループ                                              6872325688580111171099227000004240B1        000813153187360008153339629000081612469303contact@hiroshifukuda.co.jp                            I
0010312有限会社高橋印刷                                               有限会社高橋印刷・ソリューションズ                                      11269069108131101958628100000011621F        000816248795880008141544845600081380083437contact@kumikosakamoto.co.jp                           A
0010313合同会社藤原銀行                                               有限会社・グループ                                              1531509074665129858186029000007205HQ        000811549709560008154076291700081346217024contact@mikikobayashi.co.jp                            A
0010314合同会社林食品                                                合同会社林食品・ソリューションズ                                       32612302936823985302348410000066053F        000816681506540008163120328900081228554168contact@yoichitanaka.co.jp                             A
0010315清水保険株式会社                                               株式会社・グループ                                              4671683085742093912413875000009474HQ        000819797130250008164896242200081769702430contact@hiroshisuzuki.co.jp                            A
0010316株式会社山崎農林                                               山崎農林・ソリューションズ                                          8100152403102515587003178000002594B1        000811263418420008126765134500081761086723contact@chiyoishikawa.co.jp                            B
0010317株式会社松本保険                                               有限会社・グループ                                              4626362802717184429114360000006843202       000818256611000008153290982500081843031252contact@yasuhiroyamamoto.co.jp                         B
0010318井上水産合同会社                                               合同会社・グループ                                              3543530279892915431621701000006240101       000819831489360008128681433200081866494400contact@minorutanaka.co.jp                             A
0010319株式会社佐藤ガス                                               株式会社・グループ                                              5539306867165326656949007000004113202       000818722782630008132885708500081694541941contact@yuifujiwara.co.jp                              I
0010320吉田情報合同会社                                               吉田情報合同会社・ソリューションズ                                      3548606725251036896905804000009599HQ        000816891811850008170783368500081546830074contact@yumikoota.co.jp                                A
0010321合同会社近藤電気                                               合同会社・グループ                                              71624990568240804898104650000090071F        000814938492710008149552821600081143560824contact@takumainoue.co.jp                              A
0010322有限会社小林鉱業                                               有限会社・グループ                                              7130240706181059055910643000002510101       000819404625250008199065040400081603437218contact@tsubasayamashita.co.jp                         A
0010323有限会社村上運輸                                               有限会社村上運輸・ソリューションズ                                      2182368222618024815125936000001326B1        000817010659340008153478517800081931105072contact@taichifujiwara.co.jp                           A
0010324有限会社小林通信                                               合同会社・グループ                                              6145092013891538679319770000002792HQ        000815913207240008128678620900081115548516contact@atsushiogawa.co.jp                             A
0010325小川運輸株式会社                                               小川運輸・ソリューションズ                                          1813999650159561678297492000009359101       000811018703190008120549727400081516937335contact@minoruishikawa.co.jp                           A
0010326有限会社前田建設                                               有限会社前田建設・ソリューションズ                                      1932667043950517223941616000008496101       000818259570020008189420465800081275057273contact@mikihayashi.co.jp                              A
0010327池田ガス有限会社                                               池田ガス有限会社・ソリューションズ                                      1859393010029318872008669000006747101       000817401512060008143882170100081276331779contact@atsushikobayashi.co.jp                         A
0010328有限会社田中農林                                               有限会社田中農林・ソリューションズ                                      77669342945800570731712850000066591F        000816907087900008164706543300081911547393contact@shoheiishii.co.jp                              I
0010329吉田農林有限会社                                               吉田農林有限会社・ソリューションズ                                      8626715873485313859594472000003760HQ        000812202912280008145326406100081607124588contact@mikakomatsumoto.co.jp                          A
0010330山田食品株式会社                                               株式会社・グループ                                              40634132699412747169175560000061511F        000814853434460008122421098300081930815813contact@kaorifujii.co.jp                               B
0010331前田保険株式会社                                               合同会社・グループ                                              2803701273671327612201113000007610HQ        000814677474020008170743655800081945853877contact@nanamikobayashi.co.jp                          A
0010332近藤銀行合同会社                                               有限会社・グループ                                              59797443634868818815697490000032331F        000817399559080008139555842300081107572313contact@kaorisakamoto.co.jp                            A
0010333合同会社石川農林                                               有限会社・グループ                                              98461678637370171506803530000021023F        000815469512740008120588665900081410650208contact@sayuritanaka.co.jp                             A
0010334阿部運輸合同会社                                               株式会社・グループ                                              9904662125684536268934046000009188HQ        000816608859020008119471743700081265858600contact@tomoyayamazaki.co.jp                           A
0010335山下ガス株式会社                                               山下ガス・ソリューションズ                                          1221331279783356935582978000007134B1        000814775227710008133960639000081715065516contact@mikishimizu.co.jp                              I
0010336有限会社前田通信                                               有限会社前田通信・ソリューションズ                                      80152104740958771619080270000090983F        000819193793820008175998436600081822255058contact@yukiaoki.co.jp                                 A
0010337株式会社清水電気                                               株式会社・グループ                                              99748718804094762003715110000034572F        000814202274320008198743672600081344886780contact@satomimori.co.jp                               A
0010338合同会社高橋保険                                               有限会社・グループ                                              2436695113985623500210913000008928101       000818660873600008121357129100081317955743contact@yuisato.co.jp                                  A
0010339森電気有限会社                                                有限会社・グループ                                              45041227309040389421422090000027543F        000813470889150008162985315400081824091687contact@maayasasaki.co.jp                              I
0010340合同会社井上印刷                                               有限会社・グループ                                              82948625174081100990995210000093323F        000818924818530008112222362700081867479083contact@akiranakajima.co.jp                            B
0010341合同会社太田電気                                               有限会社・グループ                                              31452225231750670689413600000058861F        000815578071340008145862503800081238635019contact@harukamaeda.co.jp                              B
0010342株式会社藤田建設                                               藤田建設・ソリューションズ                                          5728172711920482422115943000001649101       000813427862760008161263160700081761087044contact@satomisuzuki.co.jp                             I
0010343合同会社井上印刷                                               合同会社井上印刷・ソリューションズ                                      65707499765625287299845610000037262F        000811402674120008121754749100081920067998contact@akemiokada.co.jp                               A
0010344合同会社中村銀行                                               合同会社・グループ                                              1450340510327795090674301000001693202       000812609414850008190226027900081684835713contact@nanamifukuda.co.jp                             A
0010345伊藤通信合同会社                                               伊藤通信合同会社・ソリューションズ                                      2867753409075191440911196000005808101       000819089618630008135944367900081182887145contact@kazuyaito.co.jp                                B
0010346株式会社小林運輸                                               有限会社・グループ                                              7249266846665576205292633000006547101       000814957017860008195395083900081164387444contact@tarotanaka.co.jp                               I
0010347株式会社石井運輸                                               石井運輸・ソリューションズ                                          53065938392499172825821540000071083F        000811214137580008151750939600081576084795contact@kumikookamoto.co.jp                            A
0010348有限会社藤田運輸                                               有限会社藤田運輸・ソリューションズ                                      35756672672551488563493000000081443F        000812359874230008149540750900081866994461contact@rikayamashita.co.jp                            A
0010349株式会社中川印刷                                               中川印刷・ソリューションズ                                          7696795726120726896610051000004731202       000817642330710008191139971900081664047550contact@yasuhiroshimizu.co.jp                          A
0010350有限会社岡本銀行                                               有限会社・グループ                                              7048053724887077815971406000009598202       000817034884910008182269715800081403295262contact@atsushisaito.co.jp                             A
0010351山本銀行合同会社                                               山本銀行合同会社・ソリューションズ                                      46296998235825214149125490000058883F        000811657580740008149936412500081978563863contact@momokosuzuki.co.jp                             A
0010352有限会社岡田建設                                               有限会社岡田建設・ソリューションズ                                      45396597832039428070020980000035133F        000815605303380008126666732000081586030778contact@yukisuzuki.co.jp                               B
0010353株式会社小林印刷                                               株式会社・グループ                                              3186390165658332880172966000001357101       000813484957580008178493274400081851309020contact@ryoheiaoki.co.jp                               B
0010354藤田水産有限会社                                               藤田水産有限会社・ソリューションズ                                      56633472819700172080056850000093731F        000817652578240008197557839400081170808928contact@naokitakahashi.co.jp                           A
0010355合同会社中村農林                                               合同会社中村農林・ソリューションズ                                      40050154871413631381957750000072761F        000813829875640008127928104600081565169861contact@hiroshisuzuki.co.jp                            A
0010356合同会社井上建設                                               株式会社・グループ                                              4988803888871639581516188000009559101       000814516742640008196960476600081296315731contact@akirawatanabe.co.jp                            I
0010357田中水産合同会社                                               合同会社・グループ                                              95544684630481626912089600000072102F        000811962521770008129549094700081610445793contact@takumaabe.co.jp                                A
0010358森通信有限会社                                                合同会社・グループ                                              19545368168936105061784740000001712F        000816866215810008199047184100081215852963contact@rikamaeda.co.jp                                B
0010359佐藤食品合同会社                                               佐藤食品合同会社・ソリューションズ                                      72734739639211307450155670000035511F        000818917533400008173311076300081843956387contact@mikiendo.co.jp                                 A
0010360有限会社佐々木銀行                                              有限会社佐々木銀行・ソリューションズ                                     4666561048011775722040929000009013Main      000818319942000008136414920500081351650176contact@naotoshimizu.co.jp                             A
0010361株式会社高橋建設                                               高橋建設・ソリューションズ                                          56491156857679516059463170000090392F        000813432309930008140190515200081814586491contact@manabuito.co.jp                                A
0010362加藤保険有限会社                                               合同会社・グループ                                              4136547937846848869685635000006445Main      000815699121280008161249359100081556550582contact@yumikosato.co.jp                               A
0010363株式会社小林鉱業                                               小林鉱業・ソリューションズ                                          2926089308553226162554503000006441202       000818466764230008191219959800081140993311contact@minorufukuda.co.jp                             A
0010364合同会社山本銀行                                               合同会社・グループ                                              16325076766800655656113520000099792F        000814730545160008130859705600081173113861contact@sayurigoto.co.jp                               A
0010365田中保険株式会社                                               田中保険・ソリューションズ                                          1834772942799731647054482000007101Main      000815336862640008129366881500081966555470contact@hanakonakagawa.co.jp                           A
0010366山口情報合同会社                                               有限会社・グループ                                              2788914386015337427065349000000121101       000819972854100008124339301200081380114537contact@taichiito.co.jp                                A
0010367岡本銀行株式会社                                               岡本銀行・ソリューションズ                                          9228747580695645462113720000000402Main      000817520410800008183913077100081676280458contact@tarosato.co.jp                                 A
0010368有限会社斎藤水産                                               合同会社・グループ                                              89702131134410591085607700000075143F        000813109150680008160127133400081473374489contact@yasuhiroshimizu.co.jp                          A
0010369合同会社加藤電気                                               合同会社加藤電気・ソリューションズ                                      18810603220068250524926820000073471F        000816009953880008163772401100081262298607contact@akemisasaki.co.jp                              A
0010370小林食品有限会社                                               合同会社・グループ                                              29795095586502732819746420000044581F        000814814002450008150935476400081817698638contact@kyosukeyoshida.co.jp                           A
0010371後藤電気合同会社                                               後藤電気合同会社・ソリューションズ                                      4337308852392247591216429000005766B1        000811232122170008176682447300081825205509contact@nanamimori.co.jp                               A
0010372株式会社鈴木電気                                               合同会社・グループ                                              7323662467329046324381378000008958HQ        000816510265010008152079185000081254965743contact@osamumurakami.co.jp                            A
0010373渡辺建設株式会社                                               株式会社・グループ                                              83074325988610537968177850000008171F        000818779923850008131549171000081418593220contact@kanasato.co.jp                                 A
0010374山下鉱業有限会社                                               山下鉱業有限会社・ソリューションズ                                      9567355027228452924755819000009453101       000817524678160008192088989700081371746540contact@kanashimizu.co.jp                              A
0010375合同会社高橋水産                                               合同会社高橋水産・ソリューションズ                                      5596363527590860049021347000007836B1        000814306510750008166802204900081574782881contact@harukayamada.co.jp                             I
0010376有限会社松本情報                                               合同会社・グループ                                              84647599690206792692830880000084191F        000818861417700008183739369100081648645850contact@shotaogawa.co.jp                               I
0010377斎藤建設有限会社                                               合同会社・グループ                                              3621248559724327998252768000007825101       000816506926770008136807193000081627101352contact@yoichisuzuki.co.jp                             A
0010378合同会社渡辺農林                                               有限会社・グループ                                              8847330299341357507485056000006236202       000815104066120008170966149100081117904089contact@sayuriyamazaki.co.jp                           I
0010379有限会社藤田情報                                               有限会社藤田情報・ソリューションズ                                      8195618720501996812239356000000183101       000813807370360008192393018300081580126397contact@tarohayashi.co.jp                              A
0010380有限会社伊藤農林                                               有限会社伊藤農林・ソリューションズ                                      43344992090650441765250970000019013F        000817668029950008169288066000081364483313contact@kumikosato.co.jp                               A
0010381有限会社井上通信                                               有限会社・グループ                                              28308816470551345917804180000054603F        000811826605470008115419839900081985077539contact@momokokobayashi.co.jp                          A
0010382加藤保険株式会社                                               加藤保険・ソリューションズ                                          4737771625964745273552261000006518B1        000818193178910008120324250000081282513524contact@kaorikato.co.jp                                I
0010383合同会社小林水産                                               合同会社小林水産・ソリューションズ                                      5312980067107585817923938000009261202       000817888228290008135896889500081775400312contact@maiyamamoto.co.jp                              A
0010384佐藤鉱業有限会社                                               佐藤鉱業有限会社・ソリューションズ                                      5720180795193524396052022000005134B1        000818583317180008178602719900081191518532contact@yokookada.co.jp                                A
