00000000001w)w#B4Qeje     加藤 花子                                                  20031004Makemi.matsumoto@company.co.jp                          SB  20220425233046002023010317104500WS-FIN-126                                             
00000000002B9V6CkJuO!     山口 健一                                                  19800522Fnaoki.watanabe@company.co.jp                           SA D20250206041900002025060917033100WS-DEV-368                                             
000000000032r+6N%q)Dk     藤田 里佳                                                  19861104Fmiki.takahashi@company.co.jp                           SA  20250119120416002025111602315300WS-SALES-320                                           
00000000004$F2FD%gcR@     清水 真綾                                                  19920425Mshohei.okada@company.co.jp                             SA D20210415193743002025100901093300WS-OPS-484                                             
00000000005!2EbDOYg!O     山口 淳                                                   19951203Mryohei.matsumoto@company.co.jp                         SA  20240620124858002024072301040900WS-OPS-518                                             
00000000006P#tGvSpi!5     高橋 零                                                   19630615Makira.sasaki@company.co.jp                             SA  20241029090735002024121811380500WS-IT-864                                              
00000000007%RBQmmFX8z     佐藤 陽子                                                  19760223Fnaoko.yamada@company.co.jp                             SA  20201227155319002024121222292500WS-IT-908                                              
00000000008w3TUGRxw_a     前田 太郎                                                  19800818Matsushi.sato@company.co.jp                             SI  20211031093642002022033013422300WS-HR-658                                              
00000000009#xCtbwEwe4     田中 聡太郎                                                 19860223Fyumiko.takahashi@company.co.jp                         SA  20250310192218002025052508142500WS-OPS-546                                             
00000000010+cm9Xi4w1#     岡本 太郎                                                  19880612Masuka.nishimura@company.co.jp                          SA  20230425093155002024040700333500WS-OPS-035                                             
000000000115SO5JyqW_z     佐々木 七夏                                                 19690808Fnaoto.saito@company.co.jp                              SA  20230427182744002023060104520600WS-MKT-693                                             
00000000012!u&Ea5Nh8$     前田 修平                                                  19870331Fnaoko.ito@company.co.jp                                SA  20210222195413002023022107575300WS-MKT-803                                             
00000000013_0N9DSkRjj     小林 春香                                                  20010728Mkaori.suzuki@company.co.jp                             SA  20251021153745002025110714473800WS-ADMIN-874                                           
0000000001408!foKsW_P     中村 七夏                                                  20020902Mnanami.kato@company.co.jp                              SASD20220603201947002024030806121900WS-IT-039                                              
00000000015T4j7I$ow8@     佐藤 亮介                                                  19841203Fnaoko.shimizu@company.co.jp                            SA D20250519002125002025091512415400WS-HR-422                                              
00000000016Sn0EwaeS!@     中村 直子                                                  19760112Fmituru.kondo@company.co.jp                             SA D20241010154718002024122609103300WS-MKT-761                                             
00000000017cR3Lu70O^X     小林 七夏                                                  19780414Mnaoto.suzuki@company.co.jp                             SA  20240529234837002024070117540100WS-SALES-031                                           
00000000018t*c_)8XrF3     中村 浩                                                   19960918Fsatomi.sasaki@company.co.jp                            SA  20250309230759002025050215492000WS-ADMIN-278                                           
000000000191*0*KPIx()     太田 京助                                                  20001101Fjun.tanaka@company.co.jp                                A  20241024101832002025031407551100WS-OPS-351                                             
00000000020^x7UxvYl*5     佐々木 陽一                                                 19661108Mtakuma.takahashi@company.co.jp                          A  20201128105129002021031317113600WS-IT-020                                              
00000000021p9S1rC1d%a     西村 智也                                                  19640315Mtaro.hayashi@company.co.jp                             SA  20220821085609002024072512040700WS-IT-799                                              
00000000022lKgFp2Jt+b     佐藤 春香                                                  19941113Fmituru.shimizu@company.co.jp                           SA  20250328223529002025100906070400WS-IT-413                                              
00000000023^kaAoFxU%4     藤原 直子                                                  19620904Fakemi.suzuki@company.co.jp                              BSD20251013221612002025112005584700WS-SALES-196                                           
00000000024eX5atVyH5)     伊藤 真綾                                                  19980711Mmikako.ogawa@company.co.jp                             SA  20230109202825002023071011192500WS-SALES-943                                           
000000000254^0^3Coy58     三浦 花子                                                  19980617Fyui.nakamura@company.co.jp                             SA  20240922110245002025053102470800WS-MKT-006                                             
00000000026^rB7F3SeC8     小川 明美                                                  19961113Fhideki.yoshida@company.co.jp                           SE  20230721133106000000000000000000WS-ADMIN-180                                           
00000000027hqnY!&Zd#6     山下 翔太                                                  19660525Fchiyo.fukuda@company.co.jp                             SA  20220601152003002022070803162100WS-DEV-436                                             
00000000028v74rMc^aA)     岡田 和也                                                  19700727Mhiroshi.nakajima@company.co.jp                         SA  20210602045627002022072709482700WS-DEV-103                                             
00000000029+A9^HPcsk(     鈴木 浩                                                   19680915Mkenichi.ito@company.co.jp                              SA  20220609093315002025012423283200WS-HR-413                                              
00000000030%s4MDCigY+     渡辺 結衣                                                  19910614Fsatomi.fukuda@company.co.jp                            SA  20240302170208002024042701210900WS-MKT-147                                             
00000000031^0KCQBr(Y7     石井 陽子                                                  19690405Mtakuma.sato@company.co.jp                              SA D20250619062033002025110923083200WS-HR-654                                              
00000000032pUV0GC4k!H     石井 太一                                                  19710506Matsushi.suzuki@company.co.jp                           SA D20220923132259002023120322592600WS-DEV-115                                             
00000000033Uv1(cLpo&3     阿部 幹                                                   19660409Fmituru.mori@company.co.jp                              SA D20201227225521002021042122385900WS-FIN-775                                             
000000000349&F7EP_UWf     佐々木 涼平                                                 19610410Fakemi.saito@company.co.jp                              SA  20210105150733002022021100560400WS-ADMIN-703                                           
000000000359+!w2Zie#X     松本 くみ子                                                 19641211Fasuka.tanaka@company.co.jp                             SA  20211208012414002022032317444900WS-DEV-646                                             
00000000036+8GLnwSpAv     渡辺 加奈                                                  19760712Fyumiko.saito@company.co.jp                             SA D20220105112652002025100323433400WS-HR-996                                              
000000000379^2wE7vZ5k     林 花子                                                   19620725Fyuki.sato@company.co.jp                                SA  20210512111308002024081921365900WS-IT-927                                              
0000000003800T3ACdf^W     山下 翼                                                   19661002Ftakuma.maeda@company.co.jp                             SA  20231005171547002025051610563900WS-MKT-748                                             
00000000039(BT(vtAbF8     坂本 直子                                                  19991223Mkana.hashimoto@company.co.jp                           SA  20220824062614002025031216563800WS-HR-061                                              
00000000040*7E(cdOp+i     佐藤 直子                                                  19831006Fyosuke.yoshida@company.co.jp                            A  20240508204850002025082419341300WS-OPS-312                                             
00000000041*(NI9n%Z$7     鈴木 くみ子                                                 19630301Fshota.ikeda@company.co.jp                              SA  20230415001005002023070919522900WS-HR-588                                              
00000000042LM_A$6Zb)7     石井 直人                                                  19820418Mchiyo.yoshida@company.co.jp                            SA  20210207124017002025071915140100WS-IT-416                                              
00000000043%(0qDLKw$u     松田 翔太                                                  19631014Fyasuhiro.aoki@company.co.jp                            SE  20220929021740000000000000000000WS-FIN-236                                             
00000000044)1UJ@ekHFM     前田 智也                                                  19761129Ftsubasa.inoue@company.co.jp                            SA D20231012004602002024050309185700WS-HR-757                                              
00000000045#I4O$Fjk+R     森 和也                                                   19890815Makira.maeda@company.co.jp                              SI  20230827043744002024080222254800WS-HR-632                                              
000000000464EASsMqn_P     佐藤 明美                                                  19930416Makemi.yamamoto@company.co.jp                           SA  20230505083118002023120609571300WS-OPS-561                                             
00000000047@IPhMTs19e     坂本 香織                                                  19830815Mhanako.okamoto@company.co.jp                            A  20250629192027002025072105181000WS-HR-504                                              
00000000048#G9Yb1df(_     渡辺 英樹                                                  19950114Fkyosuke.aoki@company.co.jp                             SA  20230727152956002024122701470400WS-MKT-368                                             
00000000049(MkSs9HzN7     林 康弘                                                   19670818Mnanami.shimizu@company.co.jp                           SA  20210117082656002022022220585500WS-HR-812                                              
00000000050^kQl8JqnWj     鈴木 智也                                                  19880904Fakemi.tanaka@company.co.jp                             SA  20250907155607002025110102180400WS-ADMIN-488                                           
00000000051H1WeEnM$@#     村上 桃子                                                  19680419Mmai.tanaka@company.co.jp                               SA  20240728134127002025041100212100WS-ADMIN-124                                           
00000000052&@Xs$Vbly9     青木 幹                                                   19780410Myasuhiro.watanabe@company.co.jp                        SA D20230812111538002025102308042100WS-IT-702                                              
00000000053IbGP_Jc8)6     高橋 結衣                                                  19990114Myui.saito@company.co.jp                                SAS 20210831222223002022110517240400WS-ADMIN-398                                           
00000000054Vd+2GgksUG     山下 あすか                                                 19680104Fmomoko.sato@company.co.jp                              SI  20240727121431002025071602104500WS-DEV-824                                             
00000000055@p7!qyWaL@     山田 直子                                                  20030119Fkazuya.takahashi@company.co.jp                         SA  20211120182607002025091520331800WS-DEV-014                                             
00000000056pgzj9Mpq(_     吉田 聡太郎                                                 19730319Fnanami.yamaguchi@company.co.jp                         SA  20251101221833002025110820495800WS-DEV-239                                             
00000000057PIi!Y4AbDu     岡本 さゆり                                                 19820131Mmikako.sakamoto@company.co.jp                           A  20230531094746002024051109210800WS-IT-766                                              
00000000058(WDX_qTL6B     佐々木 聡太郎                                                20030518Fkazuya.kato@company.co.jp                               A  20220924230505002022102411402500WS-IT-243                                              
000000000590GAw6(0(%l     小川 明美                                                  20050223Ftaro.kato@company.co.jp                                 I  20230904043143002024090614031800WS-IT-435                                              
00000000060Dn@J1!Wy*N     青木 和也                                                  19830110Mrika.yamada@company.co.jp                               A  20211202012316002024060506033800WS-ADMIN-570                                           
00000000061dP8wTa70(*     佐藤 真綾                                                  19881221Mmikako.yamamoto@company.co.jp                           A  20220609080425002024090702142500WS-MKT-250                                             
00000000062*4ojhF9v%@     遠藤 春香                                                  20011004Fmomoko.yamaguchi@company.co.jp                         SB  20221208231245002024070502524600WS-OPS-497                                             
000000000631t@h3JOVE^     池田 結衣                                                  20010228Fchiyo.ikeda@company.co.jp                              SA  20250918025337002025100610554500WS-DEV-637                                             
00000000064*)I$CfXk8*     加藤 くみ子                                                 19720131Mhiroshi.hasegawa@company.co.jp                         SA  20250710204603002025081523030800WS-IT-055                                              
00000000065m$Cv9ZVo^V     鈴木 篤司                                                  20030617Mminoru.yamazaki@company.co.jp                          SAS 20240814175329002025082514242500WS-SALES-014                                           
00000000066c3$RkUv9%H     渡辺 知実                                                  19971023Mkana.yamada@company.co.jp                               A  20250331050236002025100715084200WS-ADMIN-579                                           
00000000067_DKXo8VAV6     鈴木 桃子                                                  19700103Fkana.tanaka@company.co.jp                              SASD20240819210942002024100823123800WS-HR-734                                              
00000000068+!C8Jc5q+R     渡辺 桃子                                                  19720730Fkumiko.kato@company.co.jp                              SA  20250921154233002025092517410700WS-FIN-181                                             
00000000069$9@UxXm*cG     三浦 美加子                                                 19660325Ftaichi.endo@company.co.jp                              SA  20241031192510002025091007500900WS-ADMIN-462                                           
00000000070p&HP&6yj#A     山田 舞                                                   19800124Mnanami.ishii@company.co.jp                             SA  20210903143106002022021712400800WS-ADMIN-689                                           
000000000713wJ+!o&P!a     山田 桃子                                                  19980424Myoichi.takahashi@company.co.jp                         SA  20231106100732002023111904302200WS-HR-956                                              
00000000072wu3%^QfLO&     藤田 陽子                                                  19730719Fkana.sato@company.co.jp                                SA  20250703095326002025090900574600WS-HR-508                                              
00000000073T^6qUiW^!Z     前田 聡太郎                                                 19900818Fasuka.saito@company.co.jp                              SAS 20250826132147002025082815234800WS-FIN-781                                             
00000000074+FWZQPkm54     西村 智也                                                  19930218Fnanami.yamazaki@company.co.jp                          SA  20250515233744002025070106582100WS-HR-940                                              
00000000075*cK2N5*yHm     田中 拓真                                                  19781022Ftaichi.sakamoto@company.co.jp                          SA  20210418194654002023101303531800WS-ADMIN-273                                           
00000000076#ugZO4Yso^     斎藤 和也                                                  19920807Fryosuke.takahashi@company.co.jp                        SA  20210727065739002021083104373300WS-MKT-977                                             
00000000077pYD$#5n&%4     藤田 春香                                                  19740614Mmikako.matsuda@company.co.jp                           SA  20220601220907002025050622181300WS-HR-420                                              
00000000078&0NDQg77&2     鈴木 篤司                                                  20020109Fyui.sato@company.co.jp                                 SI  20250528063936002025090615520300WS-HR-950                                              
000000000797JN8Jhin+1     加藤 亮介                                                  19911229Mkazuya.abe@company.co.jp                               SA  20210804122953002023082207414000WS-HR-965                                              
00000000080+6nQ$C_a^K     井上 英樹                                                  19900720Fchiyo.yamamoto@company.co.jp                           SA  20230109064639002023052303324900WS-IT-439                                              
00000000081BaDPUrh_#9     渡辺 淳                                                   20000714Fyoko.okamoto@company.co.jp                             SA D20201220100730002024111313592000WS-ADMIN-249                                           
00000000082Np4H)_LAS(     鈴木 智也                                                  19690524Fyui.saito@company.co.jp                                SA  20240202172154002025061303581900WS-FIN-538                                             
00000000083&x_$#QcZ0c     中村 智也                                                  19630403Mtakuma.sato@company.co.jp                               A  20240215172753002024041306454300WS-ADMIN-450                                           
00000000084*#3COsn(1%     藤原 零                                                   19610903Mchiyo.sasaki@company.co.jp                             SI  20210429174043002025042910545500WS-OPS-186                                             
00000000085^93DQ6cOfu     山本 太一                                                  20000529Mjun.suzuki@company.co.jp                               SA D20221207204633002024051702325500WS-IT-205                                              
00000000086hrHPpf3F)2     井上 舞                                                   20011015Mchiyo.yamashita@company.co.jp                          SAS 20230630061314002023101723530800WS-ADMIN-427                                           
00000000087#pOEYxwNZ6     佐々木 京助                                                 19850819Makemi.ikeda@company.co.jp                               A  20220522052833002022122017323600WS-IT-101                                              
00000000088a_x6B)s+7k     橋本 陽子                                                  19700420Mkana.nakamura@company.co.jp                            SA  20220409042956002023041706244100WS-SALES-814                                           
00000000089))c9P!bjw6     森 陽一                                                   19610403Mkumiko.yamada@company.co.jp                            SA  20240222052710002025022412551100WS-FIN-969                                             
00000000090(b&jWGkC^0     伊藤 京助                                                  20030225Mtomoya.fujita@company.co.jp                            SA  20220926034533002024020102052900WS-FIN-252                                             
00000000091otB)1Mivfm     井上 裕太                                                  19890225Fhiroshi.ikeda@company.co.jp                            SAS 20210111135027002021031219320700WS-SALES-670                                           
00000000092+82#LkShX1     清水 美加子                                                 19930704Fmomoko.hasegawa@company.co.jp                           A  20250201035835002025080616003900WS-DEV-837                                             
00000000093lhg@)2BcMF     岡田 陽一                                                  19680830Myosuke.nishimura@company.co.jp                         SASD20240904134023002025030509200100WS-FIN-171                                             
00000000094(6DO#2Mesi     佐々木 涼平                                                 19690604Fharuka.kimura@company.co.jp                             A  20221110020055002022122719454100WS-ADMIN-632                                           
00000000095o&j8&NwjRz     高橋 直樹                                                  19721121Mryohei.endo@company.co.jp                              SA  20251108012525002025111016350500WS-DEV-114                                             
00000000096$29Kb@si_c     三浦 裕太                                                  19790803Mtaro.hasegawa@company.co.jp                            SA  20230716034534002024010802213500WS-DEV-457                                             
00000000097+!rH0Azb^Z     青木 あすか                                                 19730802Mminoru.hashimoto@company.co.jp                         SA  20230609092648002024122917075100WS-FIN-684                                             
00000000098!8&BN7V%ji     伊藤 里佳                                                  19730707Fyoko.fujita@company.co.jp                              SA  20240730063205002024110415294800WS-SALES-176                                           
0000000009902Qfs_Uu(E     田中 晃                                                   19780613Mkenichi.kimura@company.co.jp                           SA D20250413094033002025102204125000WS-HR-928                                              
00000000100_6QtLccta1     近藤 香織                                                  19980704Fryosuke.suzuki@company.co.jp                           SI  20240218155556002025091411084300WS-MKT-657                                             
00000000101&tT%sifMB7     石川 さゆり                                                 19611007Matsushi.sasaki@company.co.jp                            A  20210526053518002024080704173700WS-OPS-194                                             
00000000102)0E5hcP3VP     田中 加奈                                                  19860910Msatomi.goto@company.co.jp                              SA  20231116034820002025071022075700WS-ADMIN-487                                           
00000000103%56FLyyWi#     西村 京助                                                  19850210Mhanako.okamoto@company.co.jp                           SA D20240702085113002024102202432400WS-MKT-265                                             
00000000104_0jWBi0AJd     松田 あすか                                                 19941219Mchiyo.inoue@company.co.jp                              SA D20250923035715002025101618151200WS-SALES-188                                           
00000000105$&UKPD5jd3     加藤 くみ子                                                 19721006Fnaoto.inoue@company.co.jp                              SA  20220104204517002025051915445200WS-ADMIN-492                                           
00000000106fJ2($IGn$1     伊藤 学                                                   19860511Fnaoto.yamaguchi@company.co.jp                          SB D20230202045317002025010820053700WS-IT-739                                              
00000000107t25DpHKJ_l     鈴木 京助                                                  19800308Fnaoki.watanabe@company.co.jp                           SA D20201225023429002024010808400200WS-SALES-271                                           
00000000108@#8TiRszc1     橋本 康弘                                                  19760109Myoko.kimura@company.co.jp                              SA D20241205020845002025062102072600WS-ADMIN-212                                           
0000000010999D5y$e&&2     小林 京助                                                  19600308Fhideki.saito@company.co.jp                             SA  20250113005753002025062321513600WS-MKT-377                                             
00000000110#4DkJU5CPu     斉藤 亮介                                                  19860402Mchiyo.sato@company.co.jp                               SI  20250420173417002025100421291700WS-SALES-523                                           
00000000111EeODmmgX$3     中村 稔                                                   20040112Mtomoya.tanaka@company.co.jp                            SAS 20221109001737002024012011234900WS-HR-195                                              
00000000112j3@64rPdGm     小林 智也                                                  19881126Fasuka.kimura@company.co.jp                             SA D20210603112850002024072212413400WS-FIN-422                                             
00000000113x74LWA9^)f     吉田 あすか                                                 20020118Myui.kondo@company.co.jp                                SA  20240714173001002024083117374400WS-SALES-186                                           
000000001145dUdh)My*+     村上 京助                                                  19961123Makira.saito@company.co.jp                              SA D20240214191728002024092509030700WS-IT-661                                              
000000001159c12Qcj*u&     中村 直子                                                  19660829Ftsubasa.yoshida@company.co.jp                          SA  20231203224444002024030110592800WS-MKT-582                                             
00000000116W13d6P(&)m     高橋 直樹                                                  19970820Fakira.sato@company.co.jp                               SA  20230424095400002024090821241100WS-HR-082                                              
00000000117)0gTMks3!g     藤田 修平                                                  20021205Mmaaya.nakagawa@company.co.jp                           SA  20210812135730002024122411083800WS-HR-066                                              
00000000118*!$BUZuD7_     岡本 裕樹                                                  19840108Mnaoko.suzuki@company.co.jp                             SA  20231227062458002025031507351400WS-DEV-123                                             
00000000119o(UU1A3kPp     山崎 直樹                                                  19640111Mminoru.sato@company.co.jp                              SAS 20250607013321002025081013331500WS-ADMIN-891                                           
00000000120l!_0DMnH!4     後藤 翼                                                   19960817Fnaoto.hasegawa@company.co.jp                           SA  20210104121000002023061200504400WS-FIN-123                                             
000000001211F@1BLKwF_     高橋 裕樹                                                  19911218Fyoko.shimizu@company.co.jp                             SA  20240324025358002024101720383400WS-MKT-371                                             
000000001228tI*@6Aflo     池田 桃子                                                  19630127Fsayuri.kobayashi@company.co.jp                         SA  20220131121246002024090302165500WS-IT-812                                              
00000000123%8Dh*IxU)u     山本 篤司                                                  19770901Fminoru.nakamura@company.co.jp                          SA D20241004154741002025020909405300WS-SALES-212                                           
00000000124&2ISFbo_Lw     佐藤 舞                                                   19940713Fhanako.fukuda@company.co.jp                            SA  20250728151630002025101421461600WS-OPS-921                                             
00000000125vy(8nD5q!X     小川 学                                                   19911223Fakemi.suzuki@company.co.jp                              A  20211118111745002023072220352800WS-OPS-587                                             
00000000126_9qUqWorhT     林 英樹                                                   19600910Fakemi.suzuki@company.co.jp                              A D20220621053305002025010321091800WS-FIN-235                                             
00000000127)L&1OEbtkf     阿部 和也                                                  19710103Fkana.nakajima@company.co.jp                            SAS 20220315130001002023122215013000WS-MKT-164                                             
00000000128TB4qIPZi#b     山田 修平                                                  19610108Mkana.yamaguchi@company.co.jp                           SA  20220111094235002023110622012600WS-FIN-593                                             
00000000129j7^AGX0n*U     岡本 桃子                                                  20000820Mrika.kondo@company.co.jp                               SA  20230911092947002024042507455900WS-OPS-633                                             
00000000130lt9OO!cs&a     佐藤 治                                                   19950327Mmikako.ishii@company.co.jp                             SA  20221006210141002023072104594200WS-SALES-969                                           
00000000131RA+ZVOl0+5     田中 涼平                                                  19820803Mkenichi.hayashi@company.co.jp                          SA  20241116190352002024121603281100WS-FIN-682                                             
00000000132)51pgZS+%n     鈴木 美加子                                                 19711219Mmituru.hashimoto@company.co.jp                         SA  20231225041924002025101710093400WS-IT-812                                              
00000000133&x7O7gsqD5     加藤 健一                                                  19840309Fakira.yoshida@company.co.jp                            SA  20230414223729002025032203012700WS-FIN-941                                             
00000000134Y)^5PaMn@B     山下 学                                                   19740913Frika.aoki@company.co.jp                                SA  20240630115716002024122321201700WS-MKT-703                                             
000000001357!9NcDvpSd     山崎 香織                                                  19690627Fshohei.nakajima@company.co.jp                          SA  20211230042205002023021405101900WS-DEV-725                                             
00000000136$Y95Qq8maB     坂本 あすか                                                 19661202Mharuka.matsumoto@company.co.jp                         SA  20220101031656002024070922344400WS-OPS-956                                             
00000000137hhgq3WFh)n     田中 裕太                                                  19901124Fosamu.nakamura@company.co.jp                           SA  20230115070747002025082013501900WS-IT-498                                              
00000000138%!5ZlorgK*     斎藤 春香                                                  19610501Fmanabu.watanabe@company.co.jp                          SA  20220915184149002023091611573100WS-OPS-599                                             
00000000139O8Z@t57)^t     伊藤 洋介                                                  19880220Masuka.watanabe@company.co.jp                           SA  20211022163004002022070808251600WS-IT-342                                              
00000000140A6brczSt$M     佐藤 千代                                                  19820503Fyumiko.matsumoto@company.co.jp                         SA  20240505105909002025062516065600WS-DEV-246                                             
000000001412sPwE5yp*@     松本 京助                                                  19820906Fnanami.kobayashi@company.co.jp                         SA  20201125194111002020121209361900WS-SALES-070                                           
00000000142+hMRJ9nii9     阿部 桃子                                                  19820724Fkaori.ito@company.co.jp                                SIS 20250604000946002025101309101900WS-MKT-257                                             
00000000143m75Dgh@H*^     山本 明美                                                  19750604Mkana.kato@company.co.jp                                SA  20210831075103002025020101131300WS-IT-311                                              
00000000144!!K6e4El2U     藤田 和也                                                  19880620Mnanami.saito@company.co.jp                             SA  20220408061251002023120413485400WS-HR-344                                              
00000000145z7BvysoI%4     阿部 裕樹                                                  19671024Fyasuhiro.murakami@company.co.jp                        SA  20221219113256002023041402233900WS-ADMIN-190                                           
00000000146!@01Q74SMc     森 充                                                    19810721Mkana.murakami@company.co.jp                            SB  20201120153947002024091911255600WS-HR-426                                              
00000000147wU7$VWqv$v     井上 零                                                   19721015Masuka.yamashita@company.co.jp                          SAS 20210923092222002024110510480300WS-HR-470                                              
00000000148@UWfV!Fuw8     松本 晃                                                   19720321Fryosuke.mori@company.co.jp                             SA D20230829084714002024011107250900WS-DEV-465                                             
00000000149MWy7sLUe*^     佐藤 真綾                                                  19780714Mnaoki.murakami@company.co.jp                           SA  20210911191148002023083010590500WS-OPS-531                                             
00000000150dM4(D4Hn(X     井上 陽子                                                  19930922Myasuhiro.matsuda@company.co.jp                          A  20220929113930002024020200291400WS-IT-167                                              
00000000151WcrP_1BgUo     井上 翔太                                                  19711026Fkenichi.suzuki@company.co.jp                           SA  20220509124635002024091010575000WS-HR-849                                              
00000000152SB4kOnMdg$     山田 裕太                                                  19820620Msatomi.yamashita@company.co.jp                         SA D20250928090042002025100302015500WS-DEV-254                                             
00000000153G5R1aiou^U     池田 里佳                                                  19961130Fharuka.ikeda@company.co.jp                             SA D20241127032659002025071916022900WS-IT-015                                              
00000000154#36&A_8vpJ     山崎 知実                                                  20000617Fyoko.yoshida@company.co.jp                             SA D20250729123859002025102715382300WS-FIN-424                                             
00000000155Gu+0OCFqQ#     高橋 稔                                                   19900515Mmaaya.fujii@company.co.jp                               A  20210421092709002024091122364000WS-ADMIN-781                                           
00000000156)0L^$oCMWy     山本 結衣                                                  19670424Mjun.fujii@company.co.jp                                SA  20230125122929002024122106070600WS-MKT-420                                             
00000000157%W$V%pBrM9     田中 翔太                                                  19880207Fmikako.sato@company.co.jp                              SA D20221231111020002023051111083200WS-MKT-687                                             
00000000158$&dReXIpE8     小林 香織                                                  20010606Fasuka.ota@company.co.jp                                SE D20211202123706000000000000000000WS-OPS-778                                             
00000000159_*8)TtogZt     中村 篤司                                                  19690306Makira.endo@company.co.jp                               SI  20240814213623002025111117540900WS-DEV-972                                             
00000000160q7HS6eLh!2     鈴木 七夏                                                  19850414Mkumiko.nakajima@company.co.jp                          SA D20220902215151002022120813281400WS-FIN-686                                             
000000001612%jru9MosD     藤田 花子                                                  19710317Mmiki.yoshida@company.co.jp                             SA D20210121205647002023080615470200WS-IT-496                                              
00000000162J+Fg43Cw8^     伊藤 涼平                                                  19800203Fsotaro.yoshida@company.co.jp                           SA D20221005202349002024121009290500WS-DEV-185                                             
000000001639B#6Wbrel@     鈴木 くみ子                                                 19600719Myuki.kobayashi@company.co.jp                           SB  20251003180640002025111602474600WS-HR-430                                              
00000000164a6CZAdis%v     青木 花子                                                  19610811Makemi.yamashita@company.co.jp                          SA  20240706142344002024121311042800WS-SALES-358                                           
00000000165%l8F1Kc1HD     山下 翔太                                                  19990129Fasuka.goto@company.co.jp                               SA  20220802111838002024050700055400WS-MKT-563                                             
00000000166zKSMd_oX@4     田中 幹                                                   19990407Myuta.sato@company.co.jp                                SAS 20250917170430002025092400082800WS-DEV-320                                             
00000000167ueR4(Bp4#b     山本 直子                                                  19651010Mhiroshi.fujii@company.co.jp                            SA  20240814150309002025052505062100WS-FIN-189                                             
000000001686q6d0KcC*S     三浦 零                                                   19670816Msatomi.mori@company.co.jp                              SA D20220616191757002024071621403300WS-SALES-953                                           
00000000169!4XHmZQb5e     高橋 裕美子                                                 19660314Fyui.matsumoto@company.co.jp                            SA  20250323210851002025052211533200WS-HR-620                                              
00000000170@E0CRF_ve%     山本 太郎                                                  19861013Mtsubasa.ito@company.co.jp                              SB  20211006024315002024042103280600WS-SALES-770                                           
00000000171#hGEEPRdE8     斎藤 洋介                                                  19700329Fmaaya.hashimoto@company.co.jp                          SA  20210901055238002021101208351800WS-MKT-033                                             
00000000172^)9&1Oho@9     松本 治                                                   19921010Myasuhiro.ikeda@company.co.jp                           SA  20230527141921002024100819283700WS-SALES-536                                           
00000000173(pBBvzhp30     松本 智也                                                  19770927Fmaaya.abe@company.co.jp                                 A  20210107123841002023032522250200WS-DEV-719                                             
000000001743w4WvBqnX$     松本 裕太                                                  19990214Mchiyo.mori@company.co.jp                               SA  20220928165850002023092411242900WS-MKT-542                                             
00000000175^NjU8oIh59     佐藤 充                                                   19730626Mmomoko.nakamura@company.co.jp                          SA  20210719131452002023010706130300WS-SALES-955                                           
00000000176jE6nAAwYQ_     清水 陽一                                                  19930724Fnaoko.yamada@company.co.jp                             SA  20240904143414002025103004102800WS-DEV-555                                             
00000000177)65+FxpIVG     井上 裕樹                                                  19861212Fosamu.ito@company.co.jp                                SA  20210705045036002023022205112100WS-ADMIN-431                                           
00000000178E3&UU9Xta(     藤田 裕樹                                                  20030521Fjun.yamada@company.co.jp                               SA  20250901214836002025092320590700WS-IT-836                                              
00000000179b7ZJ@SjV$F     遠藤 明美                                                  19640330Mmikako.endo@company.co.jp                              SA  20210114124233002024012107082600WS-ADMIN-631                                           
00000000180V(H$79KkQT     小林 拓真                                                  19710817Fyoko.suzuki@company.co.jp                              SA  20220503142900002024072404313100WS-MKT-505                                             
00000000181_abF^%jp7Q     高橋 治                                                   20010701Fyoko.matsumoto@company.co.jp                           SI  20220122155210002024041615394800WS-MKT-312                                             
00000000182fb3LEEv&O@     佐藤 舞                                                   20020711Fsayuri.aoki@company.co.jp                              SA  20230429074905002025110119484700WS-DEV-294                                             
00000000183O_3B(kPabC     松本 淳                                                   19750421Msayuri.watanabe@company.co.jp                          SI  20250916235513002025111322405000WS-MKT-784                                             
00000000184q%0IrTmoM2     田中 翼                                                   19720307Ftaichi.hayashi@company.co.jp                           SA D20220930095611002022120923044200WS-MKT-994                                             
00000000185_1L5@CkjVV     鈴木 翼                                                   19890107Fyoko.suzuki@company.co.jp                              SA  20231123175354002025092722215100WS-DEV-198                                             
00000000186A0GbrPKZ$J     中村 舞                                                   19650518Mkaori.aoki@company.co.jp                               SI  20240715015212002025032714454000WS-DEV-391                                             
000000001874F9lNQlr4!     山口 直人                                                  19970304Msotaro.suzuki@company.co.jp                            SA D20231004164101002024040304505600WS-HR-020                                              
00000000188$l82Jz$x6t     山下 直子                                                  20000409Mtomoya.murakami@company.co.jp                          SA D20230605204555002025041410435800WS-IT-951                                              
00000000189iw9L03Db)X     藤原 英樹                                                  19980314Ftsubasa.ito@company.co.jp                               A  20240830123748002025102002364300WS-FIN-481                                             
00000000190*4164AYo(E     木村 淳                                                   19840708Mshohei.matsumoto@company.co.jp                         SI  20231227045351002024061800465200WS-HR-296                                              
00000000191171iPFv7(5     林 くみ子                                                  19640617Myoko.nakajima@company.co.jp                            SA  20220702094732002023070212313800WS-IT-626                                              
00000000192$m03EAwOM8     松田 直人                                                  19950603Myuki.kobayashi@company.co.jp                           SA  20240716182520002024112917273400WS-ADMIN-973                                           
00000000193#_0SWE!tHG     阿部 香織                                                  19980115Mrika.endo@company.co.jp                                SA  20210625130538002023041211372500WS-SALES-007                                           
00000000194$8*AWz@sOL     清水 拓真                                                  20000510Mchiyo.nakamura@company.co.jp                           SE  20240114163440000000000000000000WS-SALES-051                                           
00000000195hHbsB)ky_4     渡辺 さゆり                                                 19790814Mmiki.okada@company.co.jp                               SA  20210721182406002023040514562200WS-ADMIN-767                                           
00000000196lo)9NGlM#w     後藤 学                                                   19710612Fminoru.murakami@company.co.jp                          SB  20250629113157002025092000502400WS-OPS-457                                             
00000000197*NnQnryo#5     佐藤 くみ子                                                 19750911Fnaoki.kato@company.co.jp                               SA  20250210041755002025060122130000WS-OPS-940                                             
00000000198si19#Asg$f     前田 直樹                                                  19751116Myuki.kimura@company.co.jp                              SA D20240409112133002025080714012800WS-DEV-418                                             
00000000199%0ArWMTEfx     松本 七夏                                                  19700110Mkenichi.mori@company.co.jp                             SA D20240821073914002025080322570000WS-IT-135                                              
00000000200K_7AyFjn^2     佐々木 幹                                                  19790404Mchiyo.sato@company.co.jp                               SA D20231024230350002024082809153300WS-HR-878                                              
00000000201$Wt%dQEh8%     田中 千代                                                  19740609Fchiyo.mori@company.co.jp                               SA  20220519215622002023082103251800WS-FIN-180                                             
00000000202j!2z!Vbyk*     木村 篤司                                                  19850125Mryosuke.yamamoto@company.co.jp                         SA  20230728143616002025071523332400WS-DEV-539                                             
00000000203DV*3cLfrT#     清水 浩                                                   19931014Ftakuma.hayashi@company.co.jp                           SA  20230528193759002025020507350900WS-HR-754                                              
00000000204N@0@5LynqP     山田 桃子                                                  20010407Fryosuke.tanaka@company.co.jp                           SA  20210530205337002023101614340300WS-HR-689                                              
00000000205%LSMi6Tsz2     岡本 修平                                                  19850912Fmomoko.tanaka@company.co.jp                             A  20230831231029002024082411225700WS-MKT-278                                             
00000000206#V5G6Ah&!l     田中 陽子                                                  19850913Matsushi.watanabe@company.co.jp                         SA D20240129193049002024090508430300WS-HR-552                                              
00000000207F73D+q+hN+     福田 花子                                                  19860726Myasuhiro.fujii@company.co.jp                           SA  20220928221935002025083123480400WS-SALES-357                                           
00000000208sXTMjQEO(5     木村 香織                                                  19791206Fnanami.takahashi@company.co.jp                         SA  20250220095743002025080310260200WS-OPS-450                                             
00000000209ov$2KvvZ!%     伊藤 里佳                                                  19930531Fhiroshi.fujii@company.co.jp                            SAS 20250824210049002025083120592100WS-SALES-189                                           
00000000210E&F56hkQ^4     伊藤 花子                                                  19821227Fnaoki.kimura@company.co.jp                             SA  20210214014936002023112010182900WS-DEV-843                                             
00000000211C3tqL+nq!^     木村 涼平                                                  19600410Fmai.nakamura@company.co.jp                             SI  20230615001638002023111113054700WS-FIN-065                                             
00000000212&7x5HvE%L^     山崎 美加子                                                 19710709Myasuhiro.ikeda@company.co.jp                           SA D20231113121754002023121715372100WS-IT-525                                              
00000000213k1zVprCk#s     太田 聡太郎                                                 19970309Mharuka.sasaki@company.co.jp                            SASD20240604022931002025083012312900WS-HR-159                                              
00000000214*ki2SynL55     木村 香織                                                  19840912Ftsubasa.mori@company.co.jp                             SAS 20240821082641002025062303252500WS-ADMIN-261                                           
00000000215ZHo@0zMgPE     鈴木 京助                                                  19860208Mmikako.kondo@company.co.jp                             SA  20221227130146002024062606524000WS-SALES-340                                           
00000000216xP3LS%mr8$     井上 明美                                                  20050220Fakira.hayashi@company.co.jp                            SA  20250616211714002025110120364300WS-FIN-586                                             
00000000217Jj2%N$gvO)     松田 結衣                                                  19711121Fkana.yamada@company.co.jp                              SA  20220109045101002023012913333100WS-IT-163                                              
00000000218^zWoiT8O2S     斉藤 涼平                                                  19611019Ftsubasa.tanaka@company.co.jp                           SA  20240220172637002025033100202600WS-OPS-906                                             
00000000219%(6jvNCLTw     高橋 陽一                                                  19701026Mmikako.suzuki@company.co.jp                            SA  20240706031206002024101321254400WS-DEV-173                                             
00000000220RoYqMLrR&1     加藤 千代                                                  19850920Mhideki.nakamura@company.co.jp                          SA  20220515191900002024122105523900WS-SALES-937                                           
00000000221!eWmSiauT7     橋本 陽一                                                  19820917Fmai.suzuki@company.co.jp                               SB D20230614092519002025052209460900WS-DEV-574                                             
00000000222)pX(i$!K+4     藤原 亮介                                                  19670606Fyuta.watanabe@company.co.jp                            SB  20220311082441002023092308041000WS-ADMIN-461                                           
00000000223yi1RMERR_5     山崎 英樹                                                  19770101Myosuke.suzuki@company.co.jp                             AS 20230511083756002024080409210200WS-FIN-402                                             
00000000224g$4IQ5UeZ0     中村 幹                                                   20030526Mharuka.fujiwara@company.co.jp                          SA D20211218122537002023061014200800WS-MKT-608                                             
00000000225@RHZ2Lpa+2     佐藤 太一                                                  19821001Fkaori.saito@company.co.jp                              SA  20241110130329002025040610563700WS-MKT-369                                             
00000000226Ckm7TTbuT&     佐藤 裕美子                                                 19791027Fsayuri.sato@company.co.jp                              SA  20221226160000002024011602414500WS-FIN-256                                             
00000000227dxrJ2NrS)#     坂本 美加子                                                 19960513Mtomoya.ito@company.co.jp                               SA  20250120215435002025032910403800WS-FIN-661                                             
00000000228%iO)0QdR(s     後藤 和也                                                  20041109Msatomi.suzuki@company.co.jp                            SA  20220818112642002023102608544100WS-MKT-672                                             
00000000229X9CMo%VD%o     加藤 花子                                                  19910905Mhanako.ito@company.co.jp                               SA D20250806220952002025092201033900WS-ADMIN-870                                           
00000000230xDFxYQWw_2     高橋 くみ子                                                 19940901Msayuri.saito@company.co.jp                             SE D20201212222719000000000000000000WS-FIN-154                                             
00000000231KYjMdKzG+4     加藤 裕太                                                  19841219Fhiroshi.kato@company.co.jp                             SB  20240901210349002025022219411700WS-HR-329                                              
000000002326T0G9Zwv4@     木村 幹                                                   19800830Ftaichi.kimura@company.co.jp                            SA  20220824183120002024052711570800WS-FIN-172                                             
000000002331#*5KZr65H     伊藤 幹                                                   19930419Makira.abe@company.co.jp                                SESD20240202091426000000000000000000WS-FIN-278                                             
00000000234(5gSsSygbw     伊藤 直子                                                  19961025Fmaaya.nakamura@company.co.jp                           SA  20220429024010002025091314345300WS-HR-307                                              
00000000235_OXUfSac9H     中村 春香                                                  19940206Fnanami.yamamoto@company.co.jp                          SI  20250312113504002025082800275800WS-OPS-496                                             
00000000236^6p62LrcB%     田中 裕美子                                                 19681013Mkana.yamaguchi@company.co.jp                           SA  20210726091429002022032122240200WS-SALES-574                                           
00000000237Qg3CIuKe#3     森 淳                                                    19720530Fhideki.ito@company.co.jp                               SA D20251002093811002025100314154000WS-ADMIN-858                                           
00000000238_E5k&QHntP     山口 零                                                   19950223Fshota.tanaka@company.co.jp                             SI  20210626095901002025032006183500WS-DEV-399                                             
00000000239m)4DYWyMov     佐藤 翼                                                   19960901Fyoichi.hashimoto@company.co.jp                         SA  20211217174835002023022806241900WS-FIN-042                                             
00000000240H7ClXfqf&7     木村 学                                                   19670705Mkaori.miura@company.co.jp                              SA  20241204070657002025060808350000WS-IT-535                                              
00000000241q!7f*9Pp_$     太田 幹                                                   19750924Fyuta.sato@company.co.jp                                SA D20251020183632002025111619164800WS-ADMIN-781                                           
00000000242_2T0T*s1j^     中川 桃子                                                  19950902Fmituru.kondo@company.co.jp                             SA D20210731123250002025031623404000WS-IT-176                                              
00000000243k%V5IYTjQI     高橋 里佳                                                  19680428Fnaoto.takahashi@company.co.jp                          SA  20240414212202002025052705512300WS-IT-033                                              
00000000244k^Vh0Jy#WV     斎藤 充                                                   20011208Fkana.saito@company.co.jp                               SA  20230119032321002025102608432600WS-FIN-911                                             
00000000245&Y0Jk8*y(*     高橋 七夏                                                  20030710Fkenichi.tanaka@company.co.jp                           SA  20240723083710002025102912283000WS-DEV-880                                             
00000000246VK6lTb#O+f     加藤 涼平                                                  19620918Mosamu.ota@company.co.jp                                SA  20220418184347002024032013004700WS-DEV-870                                             
00000000247*mg7MoiLm7     山崎 和也                                                  20040722Fmomoko.kato@company.co.jp                               A  20211021024748002021121506550600WS-SALES-878                                           
00000000248iJ)2BLZo^S     山口 陽子                                                  19850301Fakemi.suzuki@company.co.jp                             SA  20250830031331002025100501513000WS-IT-438                                              
00000000249Y2QDv$O#+H     伊藤 香織                                                  20000310Mmanabu.kondo@company.co.jp                             SA  20230610104710002025011601101400WS-IT-847                                              
00000000250!U^EjXgvB3     後藤 康弘                                                  19760820Mkaori.matsumoto@company.co.jp                          SA  20241001071017002025012703030600WS-OPS-019                                             
00000000251XOA9W_jR@*     小林 美加子                                                 19800318Fmomoko.kato@company.co.jp                              SI  20250211213221002025082607553200WS-IT-026                                              
00000000252CKB7eMenG@     田中 学                                                   19691026Fjun.nakajima@company.co.jp                              A  20250110141511002025022200154400WS-DEV-727                                             
000000002537H#5uRqr+H     岡本 千代                                                  19831003Myui.hayashi@company.co.jp                              SA  20220828034849002024051022332500WS-IT-138                                              
00000000254HUO^1THstJ     鈴木 桃子                                                  19660607Fminoru.sato@company.co.jp                              SAS 20220322081144002023121207403800WS-FIN-211                                             
00000000255X+NR8)2n$9     伊藤 稔                                                   19830702Myosuke.sato@company.co.jp                               A  20250621021902002025081914104900WS-IT-249                                              
00000000256H9G2ZUPi%y     林 篤司                                                   19871113Makira.watanabe@company.co.jp                           SA  20220616082523002023051006351200WS-IT-220                                              
00000000257QD6Q6oQg)p     三浦 花子                                                  19841214Mnaoto.tanaka@company.co.jp                             SA  20240715172803002025082501574500WS-IT-966                                              
00000000258!9NIFars%H     山口 裕太                                                  19920812Fkaori.fujiwara@company.co.jp                           SA  20250316123559002025091504025400WS-FIN-717                                             
00000000259+e$9Zcip#*     佐藤 陽子                                                  19740522Fkana.sakamoto@company.co.jp                            SA  20221104130804002024122101491400WS-ADMIN-719                                           
00000000260B@D0OFqUIj     高橋 香織                                                  19950608Myoko.yamamoto@company.co.jp                            SA  20220902213701002025090621222100WS-FIN-840                                             
00000000261_dr87ZRkd3     山本 明美                                                  19681202Fkumiko.nakamura@company.co.jp                          SA  20220324114629002022080813152500WS-SALES-911                                           
00000000262@09PWXl*3S     中川 美加子                                                 19791029Fryohei.shimizu@company.co.jp                           SA  20220827150112002024121915241800WS-FIN-176                                             
00000000263(r6#6CipV(     伊藤 裕美子                                                 19781027Fhideki.ito@company.co.jp                               SA  20230404012217002025041903330200WS-MKT-826                                             
00000000264@Nc2Dr9FnD     後藤 七夏                                                  19970119Fsotaro.tanaka@company.co.jp                            SA  20220131162813002025100119040500WS-OPS-943                                             
00000000265j@93P1@tG+     鈴木 知実                                                  20000725Myumiko.nakagawa@company.co.jp                          SA  20210301082517002025111104102900WS-SALES-932                                           
00000000266qV7keGLc7_     近藤 京助                                                  19900220Fosamu.kimura@company.co.jp                             SA  20241018202442002025041504223500WS-SALES-619                                           
000000002671*2XpsL0BS     山本 浩                                                   19850706Fyosuke.yamaguchi@company.co.jp                         SES 20250327223646000000000000000000WS-IT-571                                              
00000000268sZ_T6O9zwJ     吉田 翼                                                   19980113Mmai.tanaka@company.co.jp                               SI  20241116191220002025092017295000WS-FIN-508                                             
00000000269QOoM3LTp+^     岡本 拓真                                                  19980416Mmaaya.sato@company.co.jp                               SA  20231125184509002025110123500400WS-HR-518                                              
00000000270j!1M&p4nFH     前田 洋介                                                  20030117Matsushi.nishimura@company.co.jp                        SA D20250211085846002025060907470200WS-DEV-057                                             
00000000271@!W8#b_hi7     井上 幹                                                   19850228Fyuki.ito@company.co.jp                                 SAS 20240628224733002025111000431300WS-ADMIN-350                                           
00000000272zRh)6QZo(Q     森 七夏                                                   19980221Fyoichi.matsumoto@company.co.jp                         SA  20201123053408002025111320135000WS-DEV-805                                             
000000002731VT+wJj6(w     鈴木 翔太                                                  19650808Mshota.ito@company.co.jp                                SA D20220720202258002022091606174800WS-HR-546                                              
00000000274qz%7fOuIo&     三浦 健一                                                  19730820Fkyosuke.takahashi@company.co.jp                        SASD20241023072658002025040113464500WS-FIN-176                                             
00000000275)rW)KwHv2X     渡辺 里佳                                                  19900211Fnanami.yamashita@company.co.jp                         SA D20241218063334002025103101405800WS-ADMIN-613                                           
00000000276FL4oUM)y$2     松本 健一                                                  19651113Makira.nakamura@company.co.jp                           SA  20220928201029002023031201133100WS-DEV-594                                             
0000000027713OG*$zf@g     佐々木 裕美子                                                19750503Mkazuya.yamashita@company.co.jp                         SA  20220406102050002025050808015500WS-OPS-172                                             
00000000278%hx1dQEw3b     清水 裕樹                                                  19650216Makemi.fujita@company.co.jp                             SA D20221007063153002022101210340200WS-FIN-009                                             
0000000027970#UVze1_6     山崎 あすか                                                 19980716Mrika.ito@company.co.jp                                 SA  20211009165110002023100104041900WS-OPS-582                                             
00000000280@4Z%SAtzm2     長谷川 健一                                                 19630914Mmai.yoshida@company.co.jp                              SA D20251113124939002025111907052200WS-FIN-274                                             
00000000281&vv6X*XmlG     太田 くみ子                                                 19661117Fyoko.matsumoto@company.co.jp                            A  20240214161911002025072203292600WS-OPS-815                                             
000000002829a27O4meb#     田中 翔太                                                  19610513Mkumiko.matsuda@company.co.jp                           SA  20251109075112002025111013245700WS-FIN-577                                             
00000000283juL1!RqX*1     山下 直人                                                  19871116Mjun.shimizu@company.co.jp                              SA  20210326135643002022091320213100WS-DEV-195                                             
00000000284B%g2xPlysY     福田 洋介                                                  19830210Mtaichi.kimura@company.co.jp                            SI D20240824015701002025102201435600WS-OPS-417                                             
00000000285&o&QO9Yca5     伊藤 洋介                                                  19620529Mtomoya.maeda@company.co.jp                              E  20230623055612000000000000000000WS-SALES-876                                           
00000000286&tbbL+myb6     小林 幹                                                   20010607Mosamu.yamashita@company.co.jp                          SA D20240718090444002025072813060500WS-ADMIN-214                                           
00000000287%N^J%1f#30     渡辺 結衣                                                  19740310Myasuhiro.hayashi@company.co.jp                         SB D20220708112540002024070605134200WS-FIN-585                                             
00000000288Ns2h5Gi(c(     伊藤 修平                                                  19800801Fakemi.saito@company.co.jp                              SA  20230813053946002025051914401900WS-SALES-451                                           
00000000289f@W9vO2pAJ     西村 七夏                                                  19850821Matsushi.yamada@company.co.jp                           SA  20250318025116002025090119423900WS-IT-803                                              
00000000290H$R64BzmQt     中村 康弘                                                  19720628Fsayuri.hasegawa@company.co.jp                          SAS 20210425215732002025071307090200WS-ADMIN-804                                           
00000000291!5x4f_VcwI     坂本 涼平                                                  19950414Fkumiko.kimura@company.co.jp                            SA  20230928153309002024053018274400WS-ADMIN-706                                           
00000000292@oV61BYwK1     鈴木 浩                                                   19760110Ftomoya.nakajima@company.co.jp                          SA  20231211145752002024110309172100WS-DEV-355                                             
00000000293o#7LRQalzM     田中 陽一                                                  19960716Fryosuke.shimizu@company.co.jp                          SA  20250120152744002025102720042400WS-HR-656                                              
00000000294f2*1N&xCNX     藤井 裕太                                                  19711125Fmaaya.inoue@company.co.jp                              SA  20221003141709002023070200173200WS-SALES-988                                           
000000002954yW2scQ^*m     斉藤 舞                                                   19721031Mtakuma.ito@company.co.jp                               SA  20250424055905002025073009085400WS-ADMIN-260                                           
00000000296e9VX1gmK)#     伊藤 あすか                                                 19970218Fhideki.suzuki@company.co.jp                            SA  20250312062927002025080819520500WS-ADMIN-420                                           
00000000297!1fNwFa#c6     前田 幹                                                   19770525Mmaaya.yoshida@company.co.jp                            SA  20250506135800002025101702260500WS-SALES-350                                           
00000000298f&0_ENxa%E     山口 太一                                                  19810824Myui.miura@company.co.jp                                SI D20220926135023002023091022475600WS-OPS-140                                             
00000000299)P1N$qW%X4     鈴木 直子                                                  19920814Masuka.yamada@company.co.jp                             SA  20240725171922002025093011054300WS-ADMIN-061                                           
00000000300&eCO&#^H87     山本 あすか                                                 19771211Mrei.ota@company.co.jp                                  SA  20240914222455002024091709005700WS-FIN-199                                             
00000000301oN5^3ClvHy     鈴木 裕太                                                  19620422Mhideki.hasegawa@company.co.jp                          SA D20241019100233002025032609515700WS-FIN-495                                             
00000000302*#0#_Sl(Zv     中村 健一                                                  19811218Mkaori.yamamoto@company.co.jp                            A  20221113194304002025013122140300WS-MKT-038                                             
00000000303i)2N#HTiVK     木村 七夏                                                  19650707Mnanami.shimizu@company.co.jp                           SA  20250524030658002025071501384100WS-ADMIN-939                                           
0000000030421xTycel%C     佐藤 裕太                                                  19671111Msotaro.takahashi@company.co.jp                         SA D20241017102943002024111610344300WS-DEV-121                                             
000000003059HKW3TtOr%     青木 浩                                                   19700111Mkenichi.nakamura@company.co.jp                         SA D20240223130237002024022323023900WS-DEV-855                                             
00000000306w)1&G%wH&@     山下 太郎                                                  20041214Fchiyo.yamaguchi@company.co.jp                          SA  20241006104554002024112023360000WS-MKT-001                                             
00000000307k0+Y@c*f+0     佐藤 学                                                   19780610Fchiyo.ogawa@company.co.jp                              SA  20231218092844002024121719145100WS-SALES-453                                           
00000000308+4gkv9Ixv4     田中 結衣                                                  19951024Mmaaya.okamoto@company.co.jp                            SA  20220826065216002023112502230400WS-MKT-861                                             
00000000309O)K@4URj^7     松田 治                                                   20050517Mkana.hayashi@company.co.jp                             SA  20210317005059002022010313242900WS-DEV-280                                             
00000000310*lI6SQVvRc     山田 淳                                                   19701220Fmaaya.sato@company.co.jp                               SA  20201217042356002022042814245400WS-MKT-058                                             
000000003118B5U9sms1+     伊藤 千代                                                  19900418Fyumiko.sato@company.co.jp                              SA  20230304193255002023091620535800WS-ADMIN-795                                           
00000000312I54L#a0op_     三浦 太一                                                  19940924Ftakuma.ito@company.co.jp                               SA  20230219154819002023061811062200WS-IT-019                                              
00000000313my+qMu0i_2     青木 健一                                                  19950816Mnaoki.kato@company.co.jp                               SA D20240501000942002025072601412700WS-SALES-738                                           
000000003143&s2nSVmG)     岡田 直子                                                  19770530Ftomoya.saito@company.co.jp                             SA  20221213072935002023122403274400WS-SALES-142                                           
00000000315Q7I2Eg+e#r     鈴木 翼                                                   19901101Mmaaya.sasaki@company.co.jp                             SA  20210619150459002023101514424600WS-FIN-306                                             
000000003168DGUAguh+2     長谷川 舞                                                  19850807Fmaaya.mori@company.co.jp                               SA D20221122173933002025071922452400WS-MKT-782                                             
00000000317Te5I*5Cv31     中村 桃子                                                  19730227Mosamu.nakamura@company.co.jp                           SA  20210717150916002022061519530100WS-ADMIN-683                                           
00000000318*6YyurWTPA     斎藤 裕樹                                                  19980518Matsushi.yamamoto@company.co.jp                         SA  20230304040615002023103119220000WS-IT-082                                              
00000000319+aMSualc77     後藤 淳                                                   19660923Mkazuya.ikeda@company.co.jp                             SB D20220727072312002023011605091400WS-DEV-068                                             
000000003204fF!d4oM*6     松本 千代                                                  19690515Mhiroshi.sato@company.co.jp                             SI  20250528014219002025090819103900WS-FIN-478                                             
00000000321DH6+Bdce*#     佐藤 英樹                                                  19660213Mtsubasa.goto@company.co.jp                             SE D20210408160808000000000000000000WS-DEV-104                                             
00000000322e3&LJgTr*O     加藤 裕美子                                                 19710612Fnaoki.suzuki@company.co.jp                             SA  20220719120838002022122207350900WS-FIN-185                                             
00000000323@1#TulyH+2     岡本 加奈                                                  19770519Mharuka.watanabe@company.co.jp                          SA D20220110031501002024033101042000WS-ADMIN-862                                           
00000000324#qIo5*p2G3     藤井 美加子                                                 19870102Fasuka.inoue@company.co.jp                              SI D20230201080557002023031804185200WS-FIN-588                                             
00000000325+Y)0P8Dy)x     西村 七夏                                                  19740220Fmiki.sasaki@company.co.jp                              SIS 20210919004309002022062912014900WS-DEV-235                                             
00000000326&3sWjHYXtZ     森 稔                                                    19790131Mtsubasa.kobayashi@company.co.jp                        SB  20210616143323002024062621062100WS-HR-111                                              
00000000327+K1iN$Sae^     佐藤 あすか                                                 19650822Mmai.takahashi@company.co.jp                             A D20250213134059002025080701163800WS-SALES-181                                           
00000000328%O8PAcac*Y     山口 あすか                                                 19600923Fharuka.ito@company.co.jp                               SA  20221006111707002023041519070800WS-DEV-966                                             
00000000329(&LFP8GlAF     鈴木 拓真                                                  19600808Fsotaro.abe@company.co.jp                               SA  20230728024232002025101711232200WS-IT-330                                              
00000000330)D5NHz0&k9     山本 舞                                                   19640808Mhanako.kobayashi@company.co.jp                          A  20230227025756002023052519531300WS-ADMIN-270                                           
00000000331Z4#2Xwney^     林 加奈                                                   19790326Fshota.yamada@company.co.jp                             SA  20240531194147002025062418100700WS-HR-504                                              
00000000332*%@9$HwuM+     池田 健一                                                  19710112Msotaro.fujita@company.co.jp                            SI  20210716024507002023101416133500WS-ADMIN-785                                           
00000000333*buBTd$WD0     中村 陽一                                                  19650530Fyuki.maeda@company.co.jp                               SA  20241027163423002025020904215100WS-FIN-526                                             
00000000334&0BESkl7TO     鈴木 翼                                                   19941202Myuta.kato@company.co.jp                                SA  20211117045212002025080520385800WS-MKT-912                                             
00000000335&SZJcJzL27     近藤 香織                                                  19981204Mminoru.takahashi@company.co.jp                         SAS 20230831151438002024031821581700WS-HR-817                                              
00000000336!yFT2OgJ3K     太田 桃子                                                  19751016Fyui.yamamoto@company.co.jp                             SA  20210531154424002024040319275700WS-SALES-491                                           
00000000337PYBoE9mt3*     山本 和也                                                  19620807Fshota.mori@company.co.jp                               SA  20250719160507002025111906055800WS-ADMIN-934                                           
000000003382l0nH4Yp+2     池田 陽一                                                  19901016Myasuhiro.okamoto@company.co.jp                          A  20240318032101002024091222333500WS-OPS-071                                             
00000000339!!Lq8GwY8u     中村 里佳                                                  19961009Fyui.nakagawa@company.co.jp                             SA D20230331081722002023070114373000WS-FIN-005                                             
00000000340rq@3Az7L&2     鈴木 翼                                                   19800515Msayuri.ito@company.co.jp                               SA  20250516224606002025060301293000WS-OPS-756                                             
00000000341)3xA#OXK$d     鈴木 康弘                                                  19610629Mkumiko.watanabe@company.co.jp                          SA  20241109045959002025052015323100WS-ADMIN-790                                           
000000003428AHONBQc)$     福田 美加子                                                 19860120Mkana.yoshida@company.co.jp                             SA  20221112020216002024022217535400WS-MKT-608                                             
000000003434#U+55yrxB     遠藤 聡太郎                                                 19870213Mrika.kimura@company.co.jp                              SA  20221105013917002024052216001000WS-OPS-620                                             
00000000344G*1xJoBB+W     三浦 翼                                                   19940326Mharuka.hashimoto@company.co.jp                         SA D20241013134230002025031616224600WS-OPS-566                                             
00000000345$(0F2GhzV&     山田 裕美子                                                 19890301Fmai.saito@company.co.jp                                SA D20250207092640002025061618511700WS-OPS-495                                             
00000000346YnMzVZ_a(1     森 洋介                                                   19941101Fsatomi.miura@company.co.jp                             SA  20220107120346002024032305493400WS-ADMIN-635                                           
00000000347LaGMu4vr+9     藤田 稔                                                   19640808Matsushi.okada@company.co.jp                            SA  20240412211110002024070206234800WS-DEV-786                                             
00000000348p6*h70(n(Q     田中 春香                                                  19720906Mmiki.hayashi@company.co.jp                              A D20220618210932002022122501560400WS-SALES-162                                           
00000000349_^h9MYYo5R     坂本 充                                                   19890221Mmomoko.yamaguchi@company.co.jp                         SAS 20211224015407002023093017430900WS-ADMIN-087                                           
00000000350k240F5Sz*5     長谷川 香織                                                 19790203Ftomoya.yamazaki@company.co.jp                          SA D20240328071413002025061516460900WS-FIN-666                                             
00000000351v@)a32NjM6     吉田 健一                                                  19700802Fkazuya.inoue@company.co.jp                             SA D20220804164920002023092310411800WS-HR-127                                              
00000000352@uCtTUI5E4     田中 学                                                   19610108Fyoko.yamada@company.co.jp                              SAS 20211217000750002022033015150200WS-OPS-956                                             
00000000353T8AO7T!kK$     西村 香織                                                  19610820Fkana.inoue@company.co.jp                               SA  20241105060140002025072102202100WS-OPS-538                                             
00000000354(6ShR4FYp1     中川 修平                                                  20021110Makemi.ishikawa@company.co.jp                           SA D20251013122228002025102314211200WS-MKT-225                                             
00000000355%^582ZIpnm     橋本 洋介                                                  19910717Mkana.sasaki@company.co.jp                              SA  20240314130603002024061015491600WS-DEV-723                                             
00000000356RL+6(ECc#0     藤田 太郎                                                  19981225Fnanami.goto@company.co.jp                              SA  20241008005640002025100611203600WS-IT-784                                              
00000000357Q)!3HgfLn6     高橋 舞                                                   19850614Myosuke.nakajima@company.co.jp                          SIS 20240525103105002024092200042600WS-SALES-026                                           
000000003584e!9Bl8#$W     伊藤 知実                                                  19640619Ftaro.yamamoto@company.co.jp                            SI  20210115132738002021042516463600WS-SALES-715                                           
00000000359&q&n1gWrwK     太田 幹                                                   19840829Msayuri.yamamoto@company.co.jp                          SA  20231024151837002024022220561000WS-ADMIN-170                                           
00000000360%7E&pJrf5x     伊藤 舞                                                   19690317Ftakuma.nakamura@company.co.jp                          SI  20250319183556002025072014143900WS-DEV-740                                             
00000000361R6(7Ys98*l     佐々木 直子                                                 19831109Fyuki.tanaka@company.co.jp                              SA D20250809130841002025090516100400WS-DEV-374                                             
00000000362Lnt0zCyy+A     後藤 直人                                                  20040527Mmomoko.okada@company.co.jp                             SA  20241013202843002025050415040700WS-SALES-089                                           
000000003634^c3N@QiaT     伊藤 桃子                                                  19761111Myui.abe@company.co.jp                                  SA  20221014100811002025030418152000WS-OPS-730                                             
00000000364Cz0B^Pm5r)     山田 修平                                                  19731117Mchiyo.watanabe@company.co.jp                           SA  20231023224551002024071922565200WS-MKT-195                                             
00000000365z@RU(5Kp63     木村 晃                                                   19630308Mmanabu.shimizu@company.co.jp                           SAS 20220105180708002022062009524200WS-SALES-114                                           
00000000366afeh8SS2g+     佐藤 千代                                                  19720831Mnanami.kimura@company.co.jp                            SA  20240526225013002024073113425000WS-IT-241                                              
00000000367c#4gHIjd!L     岡本 陽子                                                  19740704Masuka.sakamoto@company.co.jp                           SA  20220215200133002022102903012200WS-IT-236                                              
00000000368Q1(2UzslN%     藤井 英樹                                                  19610318Fmomoko.yamamoto@company.co.jp                          SI  20250602164511002025070422171100WS-ADMIN-360                                           
00000000369fxGGB4Gsu@     山田 明美                                                  19930312Fakemi.sato@company.co.jp                               SA D20250219022707002025102016385000WS-DEV-401                                             
00000000370)CmThfwW7p     田中 美加子                                                 20010714Myuta.sato@company.co.jp                                SA  20241004171132002025060616104200WS-IT-600                                              
00000000371MmF_&1Qm#E     後藤 七夏                                                  19900722Fshohei.kobayashi@company.co.jp                         SA  20231110164336002024121023481500WS-HR-723                                              
00000000372c5BUUvPl!P     小林 淳                                                   20010209Mkyosuke.nakagawa@company.co.jp                         SA  20250521063649002025110918575400WS-IT-298                                              
00000000373VzoCMpH4(7     斎藤 太一                                                  19610803Mkana.yamamoto@company.co.jp                            SA D20230414070217002023122715070300WS-FIN-486                                             
000000003749vgvv%Wt(c     藤田 花子                                                  20000327Fkana.sato@company.co.jp                                SE D20210217151240000000000000000000WS-SALES-255                                           
00000000375b_4e9XB!vo     加藤 翔太                                                  19710716Fmaaya.nakamura@company.co.jp                           SA  20250311043143002025060722485200WS-FIN-268                                             
00000000376*93Ed(m+z4     田中 智也                                                  19691119Mtsubasa.watanabe@company.co.jp                         SA  20240529194916002024100514300700WS-ADMIN-325                                           
00000000377p6hUXmMp&L     加藤 陽子                                                  19800906Fminoru.hasegawa@company.co.jp                          SA  20210301233327002022102113584500WS-IT-740                                              
00000000378Vex^HV$p&4     橋本 篤司                                                  19850827Fmikako.watanabe@company.co.jp                          SA  20210111081611002025042718415900WS-HR-445                                              
00000000379*9ky&AjrcZ     渡辺 康弘                                                  19950604Fkazuya.okada@company.co.jp                             SA D20210226105237002024091314515900WS-SALES-679                                           
00000000380*%!19Q+z))     伊藤 明美                                                  19710710Makemi.yamaguchi@company.co.jp                          SE  20221210012722000000000000000000WS-FIN-604                                             
00000000381(U0WxlbLqS     太田 英樹                                                  19900609Mhanako.sato@company.co.jp                               A  20250303135435002025102014084400WS-SALES-468                                           
00000000382b%158Rt%M%     小林 知実                                                  19730507Fshohei.yamada@company.co.jp                            SA  20210830084721002022010300565700WS-FIN-317                                             
00000000383%2zLTJS5%l     池田 浩                                                   19740208Fryohei.kato@company.co.jp                              SA  20210410060614002023041514122500WS-SALES-536                                           
00000000384an4*DHDU_3     鈴木 零                                                   19740829Makira.takahashi@company.co.jp                          SA  20241207210058002025111308551100WS-DEV-288                                             
00000000385y&9tXD1eY7     高橋 治                                                   19910121Fyumiko.matsumoto@company.co.jp                         SA  20231023024721002024041307174800WS-FIN-946                                             
00000000386^rT7qLsqM3     清水 里佳                                                  19851107Fkumiko.ito@company.co.jp                                B  20240526002052002024110513231400WS-MKT-878                                             
00000000387V_(2Uf$gAc     三浦 稔                                                   19880608Mmiki.tanaka@company.co.jp                              SA  20211030032930002023090519363800WS-DEV-608                                             
00000000388%@JT54Jw6f     小川 裕美子                                                 19601231Fyoko.yamashita@company.co.jp                           SA  20220917131705002024032015572100WS-ADMIN-901                                           
00000000389#d6Eo_sPp2     小川 美加子                                                 19691108Fsayuri.watanabe@company.co.jp                          SA D20210528230333002022121713064700WS-FIN-804                                             
00000000390%7ME1Ne^8z     小林 裕太                                                  19780816Mnaoto.takahashi@company.co.jp                          SA  20240317141219002024111522230800WS-OPS-926                                             
00000000391p%WY5Wz^xX     山本 亮介                                                  19930911Mshohei.matsumoto@company.co.jp                         SI  20250816030104002025102709533500WS-SALES-145                                           
0000000039216(LCEwe*)     鈴木 零                                                   19751222Mmanabu.sato@company.co.jp                              SB D20220525054615002024062601594000WS-ADMIN-464                                           
00000000393@zE8QpOp$o     井上 翼                                                   19690923Myumiko.suzuki@company.co.jp                             I  20240710164100002025011410292400WS-HR-862                                              
000000003948(i^Q_no!M     藤田 陽子                                                  19600814Fjun.tanaka@company.co.jp                               SA  20230929015707002024122823232900WS-SALES-769                                           
00000000395*3J8Z1UwyL     村上 幹                                                   19921223Masuka.inoue@company.co.jp                               A  20240324135150002024072511355400WS-SALES-505                                           
00000000396Z8@rVusQ%i     高橋 明美                                                  19620301Mmaaya.kato@company.co.jp                               SA  20210621042243002022061117451900WS-MKT-591                                             
00000000397j#*6YqILL*     加藤 あすか                                                 19670430Myosuke.yamazaki@company.co.jp                          SA  20220607160649002025030100283600WS-ADMIN-538                                           
00000000398#92(BO1kLK     井上 くみ子                                                 19760828Mnaoto.nishimura@company.co.jp                          SA  20230104075726002024090107525900WS-IT-859                                              
000000003999^PKwXoP$Q     高橋 結衣                                                  19670805Fryosuke.sato@company.co.jp                             SAS 20250908051221002025091315264900WS-FIN-667                                             
00000000400&yTxpZy*o3     鈴木 陽子                                                  19690328Mosamu.kobayashi@company.co.jp                          SA  20251101124651002025110415510900WS-ADMIN-911                                           
00000000401n2I_Iv8f_t     高橋 香織                                                  19790517Fhanako.sato@company.co.jp                              SI D20220219151655002025011505394600WS-DEV-119                                             
00000000402Br0Uk4Bv%)     遠藤 稔                                                   19721212Fminoru.kato@company.co.jp                              SA  20250108205619002025041512450400WS-FIN-390                                             
00000000403EB2SMsaz&Q     木村 和也                                                  19740722Fhiroshi.yamamoto@company.co.jp                         SA  20250829051439002025100721210000WS-SALES-645                                           
00000000404^d2TuQoXG%     山本 晃                                                   19930630Makemi.tanaka@company.co.jp                             SA  20240503174110002024082223322400WS-FIN-692                                             
00000000405z1YPySRm!D     西村 裕太                                                  19960104Mryosuke.yoshida@company.co.jp                          SA  20211015172820002023091221105300WS-SALES-444                                           
00000000406Glc63DIa(V     鈴木 陽子                                                  19610301Fminoru.kato@company.co.jp                              SA D20251105213432002025111723124500WS-FIN-752                                             
00000000407g@03ARYl^Q     中島 陽子                                                  19611030Myoko.takahashi@company.co.jp                           SA D20230417213941002024033120514500WS-OPS-491                                             
000000004088Hkl@5On(8     中村 涼平                                                  20040309Myui.inoue@company.co.jp                                SA D20240608031246002025070800390900WS-MKT-907                                             
00000000409q^@k7+$r)O     岡本 桃子                                                  19730527Fharuka.sakamoto@company.co.jp                          SA  20221205021908002023120205335300WS-HR-758                                              
00000000410@7roUYmrKx     渡辺 陽子                                                  19730307Fsotaro.suzuki@company.co.jp                            SI  20250910185013002025100308414600WS-IT-842                                              
00000000411!Z61FbqsGC     近藤 聡太郎                                                 19860818Mkaori.tanaka@company.co.jp                             SB  20220406125106002023011313045800WS-IT-944                                              
00000000412!vHa1+ws(7     佐藤 加奈                                                  19830623Matsushi.saito@company.co.jp                            SA  20250517001154002025062801042700WS-SALES-114                                           
00000000413#00Vrt^6VQ     石川 加奈                                                  19870213Fnaoko.kobayashi@company.co.jp                          SB D20231027214125002024051501582300WS-IT-444                                              
000000004148#JRtoEl!B     遠藤 直人                                                  19690601Mharuka.ito@company.co.jp                               SB  20251026182640002025110706243400WS-IT-177                                              
00000000415v_TZLh47@4     森 あすか                                                  19740302Fyoko.sato@company.co.jp                                SASD20250705221704002025070719221300WS-HR-724                                              
00000000416GG5dT8xUz%     山田 晃                                                   20030520Myui.kobayashi@company.co.jp                            SA  20220514092422002024100420330300WS-IT-085                                              
00000000417&Sa0Wwe8&I     中村 篤司                                                  19980523Myasuhiro.kimura@company.co.jp                          SA  20221010220454002023120823501800WS-HR-858                                              
00000000418!4@cPFoG&2     山崎 知実                                                  19791117Mmomoko.abe@company.co.jp                               SA  20211223103810002024111201033500WS-FIN-096                                             
00000000419VuTI5631&9     渡辺 学                                                   19770502Makemi.kobayashi@company.co.jp                          SA  20220719234938002024121800570300WS-FIN-350                                             
00000000420*W99J7Zv7J     鈴木 里佳                                                  19980407Fsotaro.ogawa@company.co.jp                             SI  20240815093805002024103121434900WS-MKT-105                                             
00000000421^B760Zu05!     石井 里佳                                                  19681025Fatsushi.takahashi@company.co.jp                        SA D20220327131649002024062317314300WS-OPS-724                                             
